:100000000C945F000C9487000C9487000C9487007C
:100010000C9487000C9487000C9487000C94870044
:100020000C9487000C9487000C9487000C94870034
:100030000C9487000C9487000C9487000C94870024
:100040000C94BE010C9487000C94DC040C940E05F7
:100050000C9487000C9487000C9487000C94870004
:100060000C9487000C948700000000080002010037
:100070000003040700000000000000000102040863
:100080001020408001020408102001020408102002
:10009000040404040404040402020202020203032E
:1000A0000303030300000000250028002B000000CC
:1000B0000000240027002A00B4013E05BA011124E3
:1000C0001FBECFEFD8E0DEBFCDBF11E0A0E0B1E0B2
:1000D000E8E4F4E102C005900D92A635B107D9F726
:1000E00022E0A6E5B1E001C01D92AC30B207E1F715
:1000F00010E0CCEBD0E004C02297FE010E94DB07A9
:10010000C83BD107C9F70E9482050C94170A0C94CA
:10011000000061E080911E010E94280361E080914F
:100120001C010E94280361E080911A010E942803AB
:1001300061E0809118010E94280361E0809116011E
:100140000E94280361E0809114010E94280361E06D
:10015000809112010E94280361E0809110010E94A9
:10016000280361E080910E010E94280361E08091E4
:100170000C010E94280361E080910A010E9428037B
:1001800061E0809108010E94280326E040E855E2E2
:1001900060E070E08BE691E00E947A0480E090E0FD
:1001A000A8ECB2E480935E0190935F01A09360019C
:1001B000B09361010895CF92DF92EF92FF92809108
:1001C0005C0180FD07C060E080911E010E94610318
:1001D00061E006C061E080911E010E94610360E061
:1001E00080911C010E94610360E0809118010E94CF
:1001F000610361E0809116010E94610360E08091DB
:1002000012010E94610361E0809110010E9461036C
:1002100060E080910C010E94610361E080910A011D
:100220000E94610320E030E048EC52E460915E01FE
:1002300070915F0180916001909161010E9442067E
:1002400020E030E04FE753E40E9454070E94AA06E2
:1002500080911A010E94A00220E030E048EC52E4B4
:1002600060915E0170915F018091600190916101E8
:100270000E94420620E030E04FE753E40E9454071A
:100280000E94AA06809114010E94A00220E030E0A2
:1002900048EC52E460915E0170915F0180916001D1
:1002A000909161010E94420620E030E04FE753E464
:1002B0000E9454070E94AA0680910E010E94A0028B
:1002C00020E030E048EC52E460915E0170915F0103
:1002D00080916001909161010E94420620E030E02F
:1002E0004FE753E40E9454070E94AA068091080138
:1002F0000E94A00268EE73E080E090E00E942B0272
:10030000C0905E01D0905F01E0906001F0906101CB
:1003100020E030E0A901C701B6010E943E06181690
:1003200054F420E030E048EC52E4C701B6010E94EA
:1003300050071816A4F48091060190910701919539
:1003400081959109909307018093060180915C014A
:1003500090915D01019690935D0180935C01FF9007
:10036000EF90DF90CF90089568E371E086E591E02B
:100370000C94270686E591E00C94B9051F920F9224
:100380000FB60F9211242F933F938F939F93AF93A8
:10039000BF938091630190916401A0916501B09138
:1003A00066013091620123E0230F2D3720F401967E
:1003B000A11DB11D05C026E8230F0296A11DB11D88
:1003C000209362018093630190936401A09365017F
:1003D000B09366018091670190916801A0916901D5
:1003E000B0916A010196A11DB11D809367019093A0
:1003F0006801A0936901B0936A01BF91AF919F9189
:100400008F913F912F910F900FBE0F901F901895D5
:100410003FB7F8948091670190916801A0916901BC
:10042000B0916A0126B5A89B05C02F3F19F001962F
:10043000A11DB11D3FBF6627782F892F9A2F620F0C
:10044000711D811D911D42E0660F771F881F991F46
:100450004A95D1F708958F929F92AF92BF92CF9213
:10046000DF92EF92FF926B017C010E9408024B0128
:100470005C01C114D104E104F104F1F00E943D06D5
:100480000E940802681979098A099B09683E73402D
:100490008105910570F321E0C21AD108E108F10845
:1004A00088EE880E83E0981EA11CB11CC114D104F3
:1004B000E104F10429F7DDCFFF90EF90DF90CF90BA
:1004C000BF90AF909F908F900895789484B582608C
:1004D00084BD84B5816084BD85B5826085BD85B5E8
:1004E000816085BDEEE6F0E0808181608083E1E897
:1004F000F0E01082808182608083808181608083CF
:10050000E0E8F0E0808181608083E1EBF0E08081D1
:1005100084608083E0EBF0E0808181608083EAE7A3
:10052000F0E080818460808380818260808380812C
:10053000816080838081806880831092C1000895EB
:100540001F93CF93DF93182FEB0161E00E942803E4
:10055000209711F460E004C0CF3FD10539F461E089
:10056000812FDF91CF911F910C946103E12FF0E077
:10057000E859FF4FE491E330F9F048F4E130B9F085
:10058000E230A1F584B5806284BDC8BD34C0E730D7
:10059000E9F0E83019F1E43049F58091800080629B
:1005A00080938000D0938B00C0938A0024C084B5D0
:1005B000806884BDC7BD1FC0809180008068809323
:1005C0008000D0938900C093880015C08091B0004E
:1005D00080688093B000C093B3000DC08091B000DC
:1005E00080628093B000C093B40005C0C038D105CC
:1005F0000CF0B5CFAFCFDF91CF911F91089583302D
:1006000081F028F4813099F08230A1F0089587308C
:10061000A9F08830B9F08430D1F4809180008F7DCA
:1006200003C0809180008F7780938000089584B507
:100630008F7702C084B58F7D84BD08958091B0000E
:100640008F7703C08091B0008F7D8093B0000895B4
:10065000CF93DF9390E0FC01E458FF4F2491FC011D
:10066000E057FF4F8491882349F190E0880F991F4C
:10067000FC01E255FF4FA591B4918C559F4FFC01B1
:10068000C591D4919FB7611108C0F8948C912095C1
:1006900082238C93888182230AC0623051F4F894BB
:1006A0008C91322F309583238C938881822B888381
:1006B00004C0F8948C91822B8C939FBFDF91CF91D3
:1006C00008950F931F93CF93DF931F92CDB7DEB79B
:1006D000282F30E0F901E859FF4F8491F901E458DF
:1006E000FF4F1491F901E057FF4F04910023C9F027
:1006F000882321F069830E94FF026981E02FF0E0E6
:10070000EE0FFF1FEC55FF4FA591B4919FB7F894E2
:100710008C91611103C01095812301C0812B8C93B2
:100720009FBF0F90DF91CF911F910F910895FC0112
:10073000818D228D90E0805C9F4F821B91098F7389
:1007400099270895FC01918D828D981731F0828D43
:10075000E80FF11D858D90E008958FEF9FEF0895CC
:10076000FC01918D828D981761F0828DDF01A80FB9
:10077000B11D5D968C91928D9F5F9F73928F90E0DB
:1007800008958FEF9FEF089584E395E0892B49F05A
:1007900080E090E0892B29F00E94340581110C94AF
:1007A00000000895FC01848DDF01A80FB11DA35A3C
:1007B000BF4F2C91848D90E001968F739927848F81
:1007C000A689B7892C93A089B1898C9180648C9378
:1007D000938D848D981306C00288F389E02D808163
:1007E0008F7D80830895CF93DF93EC01888D8823DC
:1007F000C9F0EA89FB89808185FD05C0A889B9898E
:100800008C9186FD0FC00FB607FCF5CF808185FF68
:10081000F2CFA889B9898C9185FFEDCFCE010E94D6
:10082000D203E7CFDF91CF910895CF92DF92FF926D
:100830000F931F93CF93DF931F92CDB7DEB76C0159
:1008400081E0D60158968C9358975B969C915B9764
:100850005C968C915C97981307C05096ED91FC9133
:100860005197808185FD2EC0F601038D10E00F5F4A
:100870001F4F0F731127F02EF601848DF81211C04F
:100880000FB607FCF9CFD6015096ED91FC91519728
:10089000808185FFF1CFC60169830E94D2036981FF
:1008A000EBCF838DE80FF11DE35AFF4F6083D60134
:1008B0005B960C935B975296ED91FC9153978081D8
:1008C00080620CC0D6015696ED91FC9157976083DB
:1008D0005096ED91FC91519780818064808381E0F6
:1008E00090E00F90DF91CF911F910F91FF90DF90DB
:1008F000CF900895BF92CF92DF92EF92FF92CF9365
:10090000DF93EC016A017B01B22EE889F98982E06C
:100910008083411581EE580761057105A1F060E003
:1009200079E08DE390E0A70196010E94B70721507E
:100930003109410951095695479537952795211554
:1009400080E1380798F0E889F989108260E874E856
:100950008EE190E0A70196010E94B707215031096E
:10096000410951095695479537952795EC85FD85A1
:100970003083EE85FF852083188EEC89FD89B08257
:10098000EA89FB89808180618083EA89FB89808193
:1009900088608083EA89FB89808180688083EA8916
:1009A000FB8980818F7D8083DF91CF91FF90EF90D5
:1009B000DF90CF90BF9008951F920F920FB60F92C5
:1009C00011242F938F939F93EF93FF93E0917B01DB
:1009D000F0917C018081E0918101F091820182FDA2
:1009E00012C09081809184018F5F8F732091850167
:1009F000821751F0E0918401F0E0E559FE4F958FA8
:100A00008093840101C08081FF91EF919F918F912C
:100A10002F910F900FBE0F901F9018951F920F925D
:100A20000FB60F9211242F933F934F935F936F93C1
:100A30007F938F939F93AF93BF93EF93FF938BE637
:100A400091E00E94D203FF91EF91BF91AF919F91EE
:100A50008F917F916F915F914F913F912F910F9067
:100A60000FBE0F901F9018958BE691E00E949703A0
:100A700021E0892B09F420E0822F089510926E0165
:100A800010926D0188EE93E0A0E0B0E080936F01DA
:100A900090937001A0937101B09372018AE491E088
:100AA00090936C0180936B0185EC90E090937801BA
:100AB0008093770184EC90E090937A0180937901A0
:100AC00080EC90E090937C0180937B0181EC90E03E
:100AD00090937E0180937D0182EC90E09093800161
:100AE00080937F0186EC90E0909382018093810156
:100AF0001092840110928501109286011092870154
:100B0000089508950E9465020E9481050E9489004F
:100B1000C4ECD3E00E94DB002097E1F30E94C40301
:100B2000F9CFCF92DF92EF92FF920F931F93CF9363
:100B3000DF937C016A01EB0100E010E00C151D055C
:100B400071F06991D701ED91FC910190F081E02D58
:100B5000C7010995892B19F00F5F1F4FEFCFC8010F
:100B6000DF91CF911F910F91FF90EF90DF90CF9089
:100B70000895FC01808191810C947708CF93DF93D5
:100B8000EC0188819981009711F00E947708198201
:100B900018821D821C821B821A82DF91CF910895D8
:100BA0000F931F93CF93DF93EC018B016F5F7F4F08
:100BB000888199810E940609009731F09983888382
:100BC0001B830A8381E001C080E0DF91CF911F91F8
:100BD0000F910895CF93DF93EC0188819981892B40
:100BE00029F08A819B818617970760F4CE010E94C5
:100BF000D005882341F08C819D81892B19F4E881EF
:100C0000F981108281E0DF91CF910895EF92FF92F8
:100C10000F931F93CF93DF93EC017B018A01BA01FD
:100C20000E94EA05811104C0CE010E94BE0507C0E2
:100C30001D830C83B701888199810E94D909CE0157
:100C4000DF91CF911F910F91FF90EF900895FC01DC
:100C5000118210821382128215821482611571052D
:100C600059F0FB0101900020E9F7AF014150510913
:100C7000461B570B0C940606089508959CD008F463
:100C800081E008950CD0D2C0CAD040F0C1D030F07D
:100C900021F45F3F19F0B3C05111FCC0B6C0D7D0EA
:100CA00098F39923C9F35523B1F3951B550BBB2733
:100CB000AA2762177307840738F09F5F5F4F220FE0
:100CC000331F441FAA1FA9F333D00E2E3AF0E0E8D9
:100CD00030D091505040E695001CCAF729D0FE2F25
:100CE00027D0660F771F881FBB1F261737074807B7
:100CF000AB07B0E809F0BB0B802DBF01FF2793586D
:100D00005F4F2AF09E3F510568F079C0C3C05F3F36
:100D1000ECF3983EDCF3869577956795B795F79554
:100D20009F5FC9F7880F911D9695879597F908954C
:100D3000E1E0660F771F881FBB1F621773078407E8
:100D4000BA0720F0621B730B840BBA0BEE1F88F7F7
:100D5000E095089504D06894B1119CC008957FD0A7
:100D600088F09F5790F0B92F9927B751A0F0D1F094
:100D7000660F771F881F991F1AF0BA95C9F712C01E
:100D8000B13081F086D0B1E0089583C0672F782F0D
:100D90008827B85F39F0B93FCCF38695779567958A
:100DA000B395D9F73EF490958095709561957F4FF6
:100DB0008F4F9F4F0895990F0008550FAA0BE0E839
:100DC000FEEF16161706E807F907C0F0121613060D
:100DD000E407F50798F0621B730B840B950B39F44D
:100DE0000A2661F0232B242B252B21F408950A26B3
:100DF00009F4A140A6958FEF811D811D089597F9F3
:100E00009F6780E870E060E008959FEF80EC0895B0
:100E100000240A94161617061806090608950024D9
:100E20000A9412161306140605060895092E039453
:100E3000000C11F4882352F0BB0F40F4BF2B11F4C7
:100E400060FF04C06F5F7F4F8F4F9F4F089557FD26
:100E50009058440F551F59F05F3F71F04795880F28
:100E600097FB991F61F09F3F79F0879508951216BF
:100E700013061406551FF2CF4695F1DF08C016166B
:100E800017061806991FF1CF86957105610508941C
:100E90000895E894BB2766277727CB0197F9089533
:100EA0008ADF08F48FEF08950BD0C0CFB1DF28F0B0
:100EB000B6DF18F0952309F0A2CFA7CF1124EACF0F
:100EC000C6DFA0F3959FD1F3950F50E0551F629FA9
:100ED000F001729FBB27F00DB11D639FAA27F00D93
:100EE000B11DAA1F649F6627B00DA11D661F829FBA
:100EF0002227B00DA11D621F739FB00DA11D621F9F
:100F0000839FA00D611D221F749F3327A00D611DBB
:100F1000231F849F600D211D822F762F6A2F11249D
:100F20009F5750408AF0E1F088234AF0EE0FFF1FF0
:100F3000BB1F661F771F881F91505040A9F79E3F27
:100F4000510570F05CCFA6CF5F3FECF3983EDCF329
:100F5000869577956795B795F795E7959F5FC1F764
:100F6000FE2B880F911D9695879597F90895A1E21C
:100F70001A2EAA1BBB1BFD010DC0AA1FBB1FEE1F13
:100F8000FF1FA217B307E407F50720F0A21BB30B5E
:100F9000E40BF50B661F771F881F991F1A9469F7DA
:100FA00060957095809590959B01AC01BD01CF0136
:100FB0000895EE0FFF1F0590F491E02D0994CF9353
:100FC000DF938230910510F482E090E0E0910A0214
:100FD000F0910B0220E030E0A0E0B0E0309739F172
:100FE0004081518148175907B8F04817590771F4E3
:100FF00082819381109729F013969C938E93129778
:101000002CC090930B0280930A0227C02115310552
:1010100031F04217530718F0A901DB0101C0EF01BD
:101020009A01BD01DF010280F381E02DD7CF2115A8
:101030003105F9F0281B390B2430310580F48A8101
:101040009B816115710521F0FB019383828304C0AC
:1010500090930B0280930A02FE01329644C0FE0177
:10106000E20FF31F81939193225031093983288332
:101070003AC02091080230910902232B41F42091BB
:10108000020130910301309309022093080220915C
:101090000001309101012115310541F42DB73EB712
:1010A0004091040150910501241B350BE091080289
:1010B000F0910902E217F307A0F42E1B3F0B28174B
:1010C000390778F0AC014E5F5F4F2417350748F0C1
:1010D0004E0F5F1F50930902409308028193919332
:1010E00002C0E0E0F0E0CF01DF91CF910895CF930F
:1010F000DF93009709F487C0FC01329713821282B4
:10110000C0910A02D0910B02209781F42081318195
:10111000280F391F809108029091090282179307C6
:1011200079F5F0930902E09308026DC0DE0120E03A
:1011300030E0AE17BF0750F412964D915C911397B3
:101140009D014115510509F1DA01F3CFB383A28363
:1011500040815181840F951F8A179B0771F48D91EF
:101160009C911197840F951F02969183808312960C
:101170008D919C911397938382832115310529F4D6
:10118000F0930B02E0930A023EC0D9011396FC9340
:10119000EE9312974D915D91A40FB51FEA17FB07CF
:1011A00079F480819181840F951F0296D90111965F
:1011B0009C938E938281938113969C938E93129726
:1011C000E0E0F0E08A819B81009719F0FE01EC01DC
:1011D000F9CFCE01029628813981820F931F209189
:1011E0000802309109022817390769F4309729F469
:1011F00010920B0210920A0202C013821282D09344
:101200000902C0930802DF91CF910895A0E0B0E0F9
:10121000ECE0F9E00C94E409EC01CB01209719F41F
:101220000E94DF07B8C0FE01E60FF71F9E012250A3
:101230003109E217F30708F4ACC0D9010D911C91F4
:10124000119706171707B8F00530110508F49FC06D
:10125000A801445051094617570708F498C0025096
:101260001109061B170B019311936D937C93CF010A
:101270000E9477088CC05B01A01AB10A4E01800E53
:10128000911EA0910A02B0910B02612C712C60E0BA
:1012900070E0109709F449C0A815B905C9F5ED909B
:1012A000FC901197670142E0C40ED11CCA14DB0404
:1012B00078F147018A189B08640142E0C40ED11CF2
:1012C0001296BC9012971396AC91B5E0CB16D10450
:1012D00040F0B282A38391828082D9018D939C9346
:1012E00009C00E5F1F4F0E0D1F1DF90111830083F2
:1012F000EB2DFA2F6115710531F0DB011396FC938C
:10130000EE93129744C0F0930B02E0930A023FC0A1
:101310006D917C9111976616770608F43B01BD012B
:1013200012960D90BC91A02DB4CF609108027091DF
:10133000090268157905E9F468167906D0F4409138
:101340000001509101014115510541F44DB75EB7BF
:101350006091040170910501461B570BE417F507D6
:10136000C0F4F0930902E0930802F90191838083AD
:101370000EC00E94DF077C01009759F0A801BE0152
:101380000E94D009CE010E947708C70104C0CE0197
:1013900002C080E090E0CDB7DEB7EEE00C94000A2A
:1013A000FB01DC0102C001900D9241505040D8F782
:1013B0000895FB01DC0101900D920020E1F70895F2
:1013C0002F923F924F925F926F927F928F929F9255
:1013D000AF92BF92CF92DF92EF92FF920F931F9343
:1013E000CF93DF93CDB7DEB7CA1BDB0B0FB6F894F4
:1013F000DEBF0FBECDBF09942A88398848885F8434
:101400006E847D848C849B84AA84B984C884DF80A4
:10141000EE80FD800C811B81AA81B981CE0FD11D88
:101420000FB6F894DEBF0FBECDBFED01089510E0FA
:10143000CCEBD0E004C0FE010E94DB072296CE3B3D
:08144000D107C9F7F894FFCFB2
:1014480000000C028000F6FF0900020008000500F9
:101458000C000D000B00060007000A000300040042
:10146800206D7367206973203A200020526F6765EA
:10147800722074686174200A0020537065656420C6
:101488006973203A200000000000150491059703B5
:06149800B003A203F30300
:00000001FF
