:100000000C94EA050C94871B0C94AE1B0C94A21361
:100010000C94A2130C94A2130C9412060C941206C6
:100020000C9412060C9412060C9412060C941206F0
:100030000C9412060C9412060C9412060C941206E0
:100040000C94D51B0C9412060C941C1F0C944E1F80
:100050000C9412060C9412060C9412060C941206C0
:100060000C9490110C941206084AD73B3BCE016EBB
:1000700084BCBFFDC12F3D6C74319ABD56833DDAFF
:100080003D00C77F11BED9E4BB4C3E916BAAAABE0E
:10009000000000803F004649464F206F766572663B
:1000A0006C6F7721002900444D5020496E697469B6
:1000B000616C697A6174696F6E206661696C6564F0
:1000C0002028636F64652000444D50207265616490
:1000D00079212057616974696E6720666F722066A6
:1000E0006972737420696E746572727570742E2EE5
:1000F0002E00456E61626C696E6720696E74657270
:100100007275707420646574656374696F6E2028FD
:1001100041726475696E6F2065787465726E616C8A
:1001200020696E746572727570742030292E2E2EBF
:1001300000456E61626C696E6720444D502E2E2E14
:1001400000496E697469616C697A696E6720444D13
:10015000502E2E2E000A53656E6420616E79206346
:10016000686172616374657220746F20626567698B
:100170006E20444D502070726F6772616D6D696EB4
:100180006720616E642064656D6F3A20004D5055A4
:100190003630353020636F6E6E656374696F6E2024
:1001A0006661696C6564004D5055363035302063AA
:1001B0006F6E6E656374696F6E20737563636573CC
:1001C0007366756C0054657374696E672064657638
:1001D00069636520636F6E6E656374696F6E732EFD
:1001E0002E2E00496E697469616C697A696E6720A8
:1001F00049324320646576696365732E2E2E0001B3
:10020000B202FFFF0190040923A135016A02060032
:1002100001600800000000000000000060044000D1
:100220000000016202000000600400400000037B47
:10023000034CCD6C03AB0336567600680402CB4703
:10024000A202180400058BC1010C04000000000389
:100250007F060CC92C979797038903264666006C86
:1002600002200002400400000000024404000000DC
:100270000002480400000000024C040000000002DC
:100280005004000000000254040000000002580462
:1002900000000000025C040000000002BC0400003A
:1002A000000001EC0400004000037F060CC92C97FD
:1002B00097970402030D355D040904872D353D0031
:1002C000A3010000000001078601FE074105F1209F
:1002D000283038077E01300746019A074704F12885
:1002E0003038076C04F12830380216020002FB0097
:1002F000003E000B00360001000200030000006514
:100300000054FFEF0000FA80000B1282000100028F
:1003100000000000000000000000000000000028B5
:100320000000FFFF4581FFFFFA720000000000009F
:1003300003E80000000100017FFFFFFE8001001BB9
:100340000000000000000000000000000000003E6F
:1003500003304000000002CAE3093E800000200094
:10036000000000000000400000006000000041FFAD
:10037000000000000B2A0000165500002182FD87B6
:100380002650FD800000001F0000000580000000D6
:100390000000000100000002000000030000400017
:1003A00000000000046F0002653200005EC04000E3
:1003B0000000000000000000000000000000FB8CB6
:1003C0006F5DFD5D08D9007C733B006C12CC320080
:1003D000139D3200D0D632000800400001F4FFE641
:1003E0008079020000000000D0D600002710FB003A
:1003F00000004000000000000000000000000000BD
:1004000000010000000000000100010000000000E9
:10041000FA36FFBC308E0005FBF0FFD95BC8FFD079
:100420009ABE000010A9FFF41EB200CEBBF7000078
:10043000000100000004000200020200000CFFC2E4
:1004400080000001800000CF80004000000000001C
:100450000001000000000000060000000014000081
:10046000000000000000000000000000000000008C
:10047000000000000000000000000000000000007C
:10048000000000000000000000000000000000006C
:100490000000033F68B6793528BCC67ED16C800069
:1004A0000000400000000000B26A000000000000F0
:1004B00000000000000000003FF0000000300000DD
:1004C000000000000000000000000000000000002C
:1004D000000000000000000000000000000000001C
:1004E000254D002F706D000005AE000C02D00000FD
:1004F000000000650054FFEF000000000000000055
:1005000001000044000000000C0000000100000099
:1005100000000065000000540000FFEF0000000034
:10052000000000000000000000000000000040008B
:10053000000000000000000000000000000040007B
:1005400000000000000000000000000000000000AB
:100550000001000000020000000000000000000098
:10056000000000000000000000000000000000008B
:100570000000000000000000000000000000001B60
:10058000000000000000000000000000000000006B
:10059000000000000000000000000000000000005B
:1005A0000000000000000000000040000000001BF0
:1005B000000000000000000000000000000000003B
:1005C000000000000000000000000000000000002B
:1005D000000000000000000000000000000000001B
:1005E0000000000000000000000000000000D8DC57
:1005F000BAA2F1DEB2B8B4A88191F74A907F916AAD
:10060000F3F9DBA8F9B0BAA080F2CE81F3C2F1C150
:10061000F2C3F3CCA2B280F1C6D880BAA7DFDFDF85
:10062000F2A7C3CBC5B6F087A2942448703C95408E
:100630006834589B78A2F183922D557DD8B1B4B817
:10064000A1D09180F270F370F27C80A8F101B09893
:1006500087D943D886C988BAA1F20EB89780F1A984
:10066000DFDFDFAADFDFDFF2AAC5CDC7A90CC92C07
:1006700097979797F1A989264666B0B4BA80ACDE01
:10068000F2CAF1B28C02A9B69800890E161EB8A95A
:10069000B4992C547CB08AA896365676F1B9AFB48A
:1006A000B083C0B8A89711B18F98B9AFF0240844AF
:1006B000106418F1A329557DAF83B593AFF00028DE
:1006C00050F1A3869F61A6DADEDFD9FAA38696DB16
:1006D00031A6D9F8DFBAA68FC2C5C7B28CC1B8A2FD
:1006E000DFDFDFA3DFDFDFD8D8F1B8A8B286B498A8
:1006F0000D355DB8AA98B0872D353DB2B6BAAF8C2E
:1007000096198F9FA70E161EB49AB8AA872C547CF0
:10071000B9A3DEDFDFA3B180F2C4CDC9F1B8A9B4BB
:1007200099830D355D89B9A32D557DB593A30E161B
:100730001EA92C547CB8B4B0F19783A81184A509E4
:1007400098A383F0DA240844106418D8F1A5295539
:100750007DA58595021A2E3A565A4048F9F3A3D939
:10076000F8F098832408441064189782A8F111F0D7
:1007700098A2240844106418DAF3DED883A5940103
:10078000D9A302F1A2C3C5C7D8F18492A24DDA2A37
:10079000D84869D92AD86855DA32D85071D932D8B0
:1007A000705DDA3AD85879D93AD87893A34DDA2AD5
:1007B000D84869D92AD86855DA32D85071D932D890
:1007C000705DDA3AD85879D93AD878A88A9AF02858
:1007D00050789EF38818F19F1D98A8D908D8C89F13
:1007E000129EF315A8DA1210D8F1AFC8978734B566
:1007F000B994A421F3D922D8F22DF3D92AD8F2350D
:10080000F3D932D881A4606061D961D86C6869D9A4
:1008100069D8747071D971D8B1A384193D5DA3836F
:100820001A3E5E931030811011B8B0AF8F94F2DA97
:100830003ED8B49AA88729DAF8D8879A35DAF8D852
:10084000879A3DDAF8D8B1B9A49885022E56A581C9
:10085000000C14A397B08AF12DD928D84DD948D8C7
:100860006DD968D8B1840DDA0ED8A32983DA2C0E9D
:10087000D8A3844983DA2C4C0ED8B8B0A88A9AF54C
:1008800020AADADFD8A840AAD0DADED8A860AADA8F
:10089000D0DFD8F19786A8319B069907AB972888B7
:1008A0009BF00C201440B8B0B4A88C9CF0042851E4
:1008B000791D301438B282ABD0982C505078789B88
:1008C000F11AB0F08A9CA82951798B2951798A2490
:1008D00070598B2058718A4469388B3940688A6412
:1008E00048318B304960A588200971584468113916
:1008F00064493019F1AC002C547CF08CA8042850C9
:1009000078F1889726A85998AC8C02264666F0891B
:100910009CA8295179247059446938644831A988C0
:1009200009205970AB11384069A8193148608CA86A
:100930003C415C207C00F187981986A86E767EA9E0
:1009400099882D557D9EB9A38A228A6E8A568A5E21
:100950009FB183062646660E2E4E6E9DB8AD002CC6
:10096000547CF2B18CB499B9A32D557D8191AC38EA
:10097000AD3AB58391AC2DD928D84DD948D86DD989
:1009800068D88C9DAE29D904AED851D904AED87997
:10099000D904D881F39DAD008DAE1981ADD901D8B0
:1009A000F2AEDA26D88E912983A7D9ADADADADF3DD
:1009B0002AD8D8F1B0AC89913E5E76F3AC2E2EF1F8
:1009C000B18C5A9CAC2C2828289CAC3018A8988153
:1009D00028343C9724A728343C9C24F2B089AC915D
:1009E0002C4C6C8A9B2DD9D8D851D9D8D879D9D844
:1009F000D8F19E88A331DAD8D8912DD928D84DD9ED
:100A000048D86DD968D8B18393353D8025DAD8D8D8
:100A10008569DAD8D8B49381A328343CF3AB8BF83A
:100A2000A391B609B4D9ABDEFAB0879CB9A3DDF1C6
:100A3000A3A3A3A395F1A3A3A39DF1A3A3A3A3F2AF
:100A4000A3B49080F2A3A3A3A3A3A3A3A3A3A3B23D
:100A5000A3A3A3A3A3A3B087B599F1A3A3A398F1DC
:100A6000A3A3A3A397A3A3A3A3F39BA3A3DCB9A7C7
:100A7000F1262626D8D8FF00000008000201000059
:100A80000304070000000000000000010204081039
:100A900020408001020408102001020408102004F4
:100AA0000404040404040402020202020203030315
:100AB00003030300000000230026002900000000BB
:100AC00000250028002B0000000000240027002A39
:100AD0000000407A10F35A00A0724E18090010A5C9
:100AE000D4E80000E87648170000E40B5402000048
:100AF000CA9A3B000000E1F50500008096980000CE
:100B00000040420F000000A08601000000102700F6
:100B1000000000E803000000006400000000000A7C
:100B200000000000000100000000002C76D888DCE6
:100B3000674F0823DFC1DFAE59E1B1B796E5E3E4C3
:100B400053C63AE651997696E8E6C28426EB898C3C
:100B50009B62ED407C6FFCEFBC9C9F40F2BAA56F9E
:100B6000A5F490055A2AF75C936B6CF9676DC11B6D
:100B7000FCE0E40D47FEF520E6B500D0ED902E0335
:100B800000943577050080841E080000204E0A007E
:100B90000000C80C333333330F986E12831141EFCA
:100BA0008D2114893BE65516CFFEE6DB18D1844B28
:100BB000381BF77C1D901DA4BBE424203284725E98
:100BC000228100C9F124ECA1E53D27001F0EA610EB
:100BD0007E1F8B0E11241FBECFEFD8E0DEBFCDBF2E
:100BE00012E0A0E0B1E0E4E6F7E502C005900D9266
:100BF000A435B107D9F724E0A4E5B2E001C01D9205
:100C0000A83CB207E1F71BE0C2EDDBE004C022978D
:100C1000FE010E94E526CC3CD107C9F70E94C21F05
:100C20000C94A52B0C94000081E08093540208954D
:100C30008F929F92AF92BF92CF92EF920F931F939A
:100C4000CF93DF93CDB7DEB7C059D1090FB6F89473
:100C5000DEBF0FBECDBF5C010E94EC176EE170E0FD
:100C600080E090E00E944E1C60E0C5010E94F317F6
:100C700021E041E060E1C5010E94211966E0C50163
:100C80000E942C19C5010E94321920E040E060E06A
:100C9000C5010E942119C5010E946818C5010E9462
:100CA0008618182FC5010E94AD18882EC5010E9414
:100CB000D418982E4FE760E0C5010E94AC1760E0A1
:100CC000C5010E94D71748E660E0C5010E94AC1735
:100CD000C5010E94E51764E170E080E090E00E94A9
:100CE0004E1CEE24E39400E020E049E857E06EEE6D
:100CF00072E0C5010E948F1A882309F40EC240ECED
:100D000050E06EE272E0C5010E94571B882309F48F
:100D100006C263E0C5010E94FA1762E1C5010E94A4
:100D2000B81764E0C5010E94621761E0C5010E9426
:100D3000681763E0C5010E94731763E0C5010E9454
:100D40007E1763E0C5010E945A1B60E0C5010E9446
:100D5000601B60E0C5010E947F18612FC5010E94E1
:100D6000A218682DC5010E94C918692DC5010E94ED
:100D7000F018812C912CF401E150FE4FE491A1E890
:100D8000B0E0AC0FBD1FA80DB11DEC9381E0880D44
:100D90009FEF891A990AE3E0E81568F7CD57DF4F0E
:100DA0004881C358D04050E09A012E5F3F4F90E0F9
:100DB0002817390704F7C12CEE24E394CE57DF4FF0
:100DC0000881C258D040CF57DF4F2881C158D0404A
:100DD00061E870E06C0F7D1F6D5F7F4FC5010E9461
:100DE000AE1960E0F401E150FE4FE491A1E8B0E0FB
:100DF000AC0FBD1FA60FB11DEC936F5FFFEF8F1AF5
:100E00009F0A643078F3CD57DF4F4881C358D040F4
:100E100050E09A012E5F3F4F862F90E02817390748
:100E20000CF7C12CEE24E394CE57DF4F0881C25853
:100E3000D040CF57DF4F2881C158D04061E870E0E3
:100E40006C0F7D1F6D5F7F4FC5010E94AE19C501FC
:100E50000E94DE17C5010E941918482FBE016F5F5E
:100E60007F4FC5010E94351862E0C5010E949417AA
:100E70006CE9C5010E94A01760E5C5010E949A17A0
:100E800060E0C5010E94A617C5010E94DE1761E05F
:100E9000C5010E94D01761E0C5010E941319C50168
:100EA0000E941A1960E0F401E150FE4FE491A1E8BC
:100EB000B0E0AC0FBD1FA60FB11DEC936F5F8FEFBD
:100EC000881A980A643078F3CD57DF4F4881C358A9
:100ED000D04050E09A012E5F3F4F862F90E02817B8
:100EE00039070CF7C12CEE24E394CE57DF4F08816D
:100EF000C258D040CF57DF4F2881C158D04061E859
:100F000070E06C0F7D1F6D5F7F4FC5010E94AE19B1
:100F100060E0F401E150FE4FE491A1E8B0E0AC0FD5
:100F2000BD1FA60FB11DEC936F5F9FEF891A990A41
:100F3000643078F3CD57DF4F4881C358D04050E03C
:100F40009A012E5F3F4F862F90E0281739070CF744
:100F5000C12CEE24E394CE57DF4F0881C258D04015
:100F6000CF57DF4F2881C158D04061E870E06C0F47
:100F70007D1F6D5F7F4FC5010E94AE1960E0F401D7
:100F8000E150FE4FE491A1E8B0E0AC0FBD1FA60F09
:100F9000B11DEC936F5FEFEF8E1A9E0A643078F309
:100FA000CD57DF4F4881C358D04050E09A012E5FA3
:100FB0003F4F862F90E0281739070CF7C12CEE24FD
:100FC000E394CE57DF4F0881C258D040CF57DF4F50
:100FD0002881C158D04061E870E06C0F7D1F6D5FC3
:100FE0007F4FC5010E94AE19C5010E9419188330B8
:100FF0009105D0F3482FBE016F5F7F4FC5010E945E
:101000003518C5010E94BE1760E0F401E150FE4FA3
:10101000E491A1E8B0E0AC0FBD1FA60FB11DEC93A9
:101020006F5FFFEF8F1A9F0A643078F3CD57DF4F61
:101030004881C358D04050E09A012E5F3F4F862F21
:1010400090E0281739070CF7CE57DF4F0881C258B8
:10105000D040CF57DF4F2881C158D04061E870E0C1
:101060006C0F7D1F6D5F7F4FC5010E944419C50144
:101070000E94191883309105D0F3482FBE016F5F8D
:101080007F4FC5010E943518C5010E94BE17F401AB
:10109000E150FE4F60E08491A1E8B0E0AC0FBD1FCD
:1010A000A60FB11D8C936F5F643010F43196F3CFAF
:1010B000CD57DF4F4881C358D04050E09A012E5F92
:1010C0003F4F862F90E02817390784F761E870E0DA
:1010D0006C0F7D1F6D5F7F4FC12CEE24E394CE57C4
:1010E000DF4F0881C258D040CF57DF4F2881C15809
:1010F000D040C5010E94AE1960E0C5010E941319DD
:101100008AE290E0F50193838283C5010E94DE1795
:10111000C5010E94BE1780E003C081E001C082E0EB
:10112000C057DF4F0FB6F894DEBF0FBECDBFDF91C3
:10113000CF911F910F91EF90CF90BF90AF909F9064
:101140008F900895CF93DF93DB01FA01309719F464
:10115000EC01E881F981808190E0982F8827218136
:10116000820F911D11969C938E93848190E0982F0D
:1011700088272581820F911D13969C938E93129739
:10118000808590E0982F88272185820F911D1596E4
:101190009C938E931497848590E0982F88272585BB
:1011A000820F911D17969C938E93169780E0DF9186
:1011B000CF910895FF920F931F93CF93DF93CDB7F5
:1011C000DEB728970FB6F894DEBF0FBECDBF8B01F8
:1011D000BE016F5F7F4F0E94A208F82E81114CC0A4
:1011E00069817A81882777FD8095982F0E94D9247C
:1011F00020E030E040E858E30E94B925F801608320
:101200007183828393836B817C81882777FD8095AE
:10121000982F0E94D92420E030E040E858E30E9453
:10122000B925F80164837583868397836D817E81F8
:10123000882777FD8095982F0E94D92420E030E000
:1012400040E858E30E94B925F801608771878287DA
:1012500093876F817885882777FD8095982F0E94E6
:10126000D92420E030E040E858E30E94B925F80195
:1012700064877587868797878F2D28960FB6F89491
:10128000DEBF0FBECDBFDF91CF911F910F91FF90B9
:1012900008954F925F926F927F928F929F92AF923A
:1012A000BF92CF92DF92EF92FF920F931F93CF9353
:1012B000DF93CDB7DEB728970FB6F894DEBF0FBE29
:1012C000CDBF8B01DA011496CD90DD90ED90FC90AE
:1012D00017971C964D905D906D907C901F978D9008
:1012E0009D90AD90BC90139718968D919D910D9007
:1012F000BC91A02D89839A83AB83BC83A301920107
:10130000C701B6010E94B9256D837E838F839887BC
:1013100029813A814B815C81C501B4010E94B925C4
:101320009B01AC016D817E818F8198850E94732322
:101330009B01AC010E947423F80160837183828356
:101340009383A7019601C501B4010E94B9256D835D
:101350007E838F839887A301920169817A818B8133
:101360009C810E94B9259B01AC016D817E818F819A
:1013700098850E9474239B01AC010E947423D801BC
:1013800014966D937D938D939C931797A50194016B
:10139000C501B4010E94B9254B015C01A70196016A
:1013A000C701B6010E94B9259B01AC01C501B4017A
:1013B0000E9473236B017C0129813A814B815C81FE
:1013C000CA01B9010E94B9259B01AC01C701B60150
:1013D0000E9473236B017C01A3019201C301B2013E
:1013E0000E94B9259B01AC01C701B6010E9474237C
:1013F000F801608771878287938780E028960FB60F
:10140000F894DEBF0FBECDBFDF91CF911F910F913A
:10141000FF90EF90DF90CF90BF90AF909F908F9014
:101420007F906F905F904F9008952F923F924F92D0
:101430005F926F927F928F929F92AF92BF92CF9264
:10144000DF92EF92FF920F931F93CF93DF9300D021
:1014500000D000D0CDB7DEB71B018A013E832D83BB
:10146000FA01C080D180E280F380A7019601C70114
:10147000B6010E94742369837A838B839C83F8016D
:1014800084809580A680B780A5019401C501B40130
:101490000E9474232B013C01A701960169817A8186
:1014A0008B819C810E94B9256B017C01A50194016F
:1014B000C301B2010E94B9259B01AC01C701B6016D
:1014C0000E94742320E030E040E85FE30E94732331
:1014D0006B017C01F8012085318542855385C3016C
:1014E000B2010E94B9252B013C01F8012485358504
:1014F0004685578569817A818B819C810E94B925B7
:101500009B01AC01C301B2010E947323A7019601A4
:101510000E94E723F1016083718382839383ED81CD
:10152000FE816481758186819781C084D184E28443
:10153000F3849B01AC010E94B9254B015C01A7011A
:101540009601C701B6010E94B9259B01AC01C501F6
:10155000B4010E9474230E9420269B01AC01ED81FE
:10156000FE8160817181828193810E943E240E946C
:101570001224F1016483758386839783ED81FE8154
:101580006081718182819381C084D184E284F384FB
:101590009B01AC010E94B9254B015C01A70196019A
:1015A000C701B6010E94B9259B01AC01C501B40178
:1015B0000E9474230E9420269B01AC01ED81FE81D4
:1015C00064817581868197810E943E240E94122445
:1015D000F101608771878287938780E026960FB636
:1015E000F894DEBF0FBECDBFDF91CF911F910F9159
:1015F000FF90EF90DF90CF90BF90AF909F908F9033
:101600007F906F905F904F903F902F900895AF9292
:10161000BF92CF92DF92EF92FF920F931F93CF93DF
:10162000DF93EC015B010091060110910701B80105
:10163000882777FD8095982F0E94D9242DEC3CECCB
:101640004CEC5DE30E94B9250E94A6246B017C014D
:1016500017FF02C00F5F1F4F159507950C191D0945
:101660006CE671E0CE010E94932280910503909177
:1016700006039C012C0D3D1D2A153B056CF463E10E
:1016800071E0CE010E94A92280910503909106038A
:10169000B501681B790B10C08C199D09A816B906F5
:1016A00044F56AE171E0CE010E941D2360910503BB
:1016B000709106036A0D7B1D6C197D09882777FDE3
:1016C0008095982F0E94D9246B017C01B80188274E
:1016D00077FD8095982F0E94D9249B01AC01C7010A
:1016E000B6010E943E24AB01BC01CE010E942D2315
:1016F00005C060E271E0CE010E941D23CE01DF91A2
:10170000CF911F910F91FF90EF90DF90CF90BF90FE
:10171000AF9008958F929F92AF92BF92CF92DF9237
:10172000EF92FF92CF93DF93CDB7DEB72C970FB632
:10173000F894DEBF0FBECDBF8091D502882309F497
:101740006DC28091CF029091D0022091D102309150
:10175000D20240915402411103C082179307C8F38B
:101760001092540287E093E00E94BE178093D40247
:1017700087E093E00E9419189093D0028093CF02E3
:101780002091D40224FD03C08115944059F487E0D0
:1017900093E00E94DE1766E970E087E294E00E9421
:1017A0004D20EEC121FFECC14091D1025091D202F7
:1017B0008091CF029091D0028417950748F487E07A
:1017C00093E00E9419189093D0028093CF02ECCF3F
:1017D0006FE872E087E093E00E9435188091CF02B5
:1017E0009091D0022091D1023091D202821B930BB2
:1017F0009093D0028093CF028091030390910403D1
:10180000892B61F46AE271E087E294E00E94402053
:1018100060E27EE480E090E00E944E1C4FE852E0DF
:101820006FE772E087E093E00E94DA084FE752E04A
:1018300061E672E087E093E00E94490921E632E028
:101840004FE752E065E572E087E093E00E94150AF9
:1018500020E030E044E353E4609155027091560279
:1018600080915702909158020E94B9252BED3FE0DC
:1018700049E450E40E943E2460935502709356025E
:10188000809357029093580220E030E044E353E401
:101890006091590270915A0280915B0290915C02B2
:1018A0000E94B9252BED3FE049E450E40E943E241C
:1018B0006B017C016093590270935A0280935B0222
:1018C00090935C0220E030E044E353E460915D02D9
:1018D00070915E0280915F02909160020E94B92532
:1018E0002BED3FE049E450E40E943E2460935D020A
:1018F00070935E0280935F0290936002C701B6010D
:101900000E94A624DB01E091D602F091D702EE0FEF
:10191000FF1FE852FD4F718360832091DC023091FC
:10192000DD02C090DE02D090DF024091E0025091D3
:10193000E102FC2DED2DC216D30614F4F22FE32F95
:10194000AF2EBE2EA416B5060CF45A01AA16BB067D
:101950000CF45B012C153D050CF469014C155D057B
:101960000CF46A01AC15BD050CF46B016FE571E078
:1019700087E294E00E9440204091590250915A021F
:1019800060915B0270915C0222E030E087E294E0BB
:101990000E9423226BE671E087E294E00E944020DF
:1019A000E0900601F0900701B5016C197D0977FF01
:1019B00003C0719561957109882777FD8095982FEF
:1019C0000E94D9244B015C01B701882777FD8095DF
:1019D000982F0E94D9242DEC3CEC4CE45DE30E944E
:1019E000B9259B01AC01C501B4010E943A242091A4
:1019F000D6023091D70287FF0BC0F901EE0FFF1F0F
:101A0000E852FD4F808191819093E3028093E2023E
:101A1000C901019665E070E00E947A269093D70292
:101A20008093D60280910303909104038330910543
:101A30002CF4019690930403809303038091030395
:101A400090910403039709F088C060915902709146
:101A50005A0280915B0290915C020E94A6247093CE
:101A60000603609305039701F7FE02C02F5F3F4F07
:101A700035952795260F371F30930B0120930A01C8
:101A8000F7FE03C02FEFE21AF20AF594E794F194FF
:101A9000E194F108E60EF71EF0920901E0920801C8
:101AA0006DE671E087E294E00E94402060910503BA
:101AB000709106034AE050E087E294E00E941C2106
:101AC0006CE671E087E294E00E94712060E871E0CA
:101AD00087E294E00E94402060910A0170910B011E
:101AE0004AE050E087E294E00E941C216CE671E03D
:101AF00087E294E00E9471206FE871E087E294E051
:101B00000E94402060910801709109014AE050E074
:101B100087E294E00E941C216CE671E087E294E089
:101B20000E9471206EE971E087E294E00E947120CA
:101B30008091030390910403019690930403809392
:101B4000030368ED71E087E294E00E94712060E198
:101B500077E280E090E00E944E1C6091E20270917A
:101B6000E302CE0101960E94070BBE016F5F7F4F1B
:101B700087E294E00E943220CE0101960E94252245
:101B80008EE00E94C31CBC01882777FD8095982FAA
:101B90000E94D92420E030EC4FE754E40E943E2418
:101BA0009B01AC0160E070E080E89FE30E9473233A
:101BB0006B017C0120E030E04FE753E40E94B9253F
:101BC0000E94A62489E00E94E01C20E030E048EC5E
:101BD00052E4C701B6010E94B925AB01BC0122E065
:101BE000CE0107960E94C1226DEF71E0CE010196F1
:101BF0000E949322BE01695F7F4FCE0101960E9431
:101C00005F23BC0187E294E00E945F20CE01019631
:101C10000E942522CE0107960E9425222C960FB6FF
:101C2000F894DEBF0FBECDBFDF91CF91FF90EF9054
:101C3000DF90CF90BF90AF909F908F90089587E0F6
:101C400093E00E945E1720E046E067E084EE92E0B9
:101C50000E94751480E090E0A0E8BFE380937F02CB
:101C600090938002A0938102B0938202109283022B
:101C700010928402109285021092860210928702BE
:101C8000109288021092890210928A0210928B029E
:101C900010928C0210928D0210928E0210927A0293
:101CA0001092790210927C0210927B0210927E02B6
:101CB00010927D02109274021092730210927602BA
:101CC00010927502109278021092770210926E02B2
:101CD00010926D021092700210926F0210927202B6
:101CE00010927102109261021092620210926302CD
:101CF00010926402109265021092660210926702BE
:101D0000109268021092690210926A0210926B029D
:101D100010926C02089584EE92E00C941C148AE1F7
:101D200093E00E94181088E18093B80040E855E2E3
:101D300060E070E084EE92E00E94A51426E040E0AE
:101D400052EC61E070E087E294E00E94BA1E63EE1C
:101D500071E087E294E00E944D2087E093E00E94CA
:101D6000051865EC71E087E294E00E944D2087E061
:101D700093E00E946018882319F067EA71E002C0BE
:101D80006DE871E087E294E00E944D2065E571E026
:101D900087E294E00E944D2087E294E00E94D71DE4
:101DA000892B31F087E294E00E94F01D892BA1F786
:101DB00087E294E00E94D71D892BD1F387E294E05B
:101DC0000E94D71D892B31F087E294E00E94F01D1C
:101DD000892BA1F761E471E087E294E00E944D2035
:101DE00087E093E00E9418068093D3026CED70E0C8
:101DF00087E093E00E9401196CE470E087E093E0D3
:101E00000E9407196BEA7FEF87E093E00E940D19AB
:101E10006CEF76E087E093E00E94FB188091D3029C
:101E2000811130C061E371E087E294E00E944D20AF
:101E300061E087E093E00E94131962EF70E087E2AF
:101E400094E00E944D2043E050E064E176E080E0C1
:101E50000E94671B87E093E00E94BE178093D40224
:101E600068EC70E087E294E00E944D2081E080936E
:101E7000D5028091090390910A039093D202809336
:101E8000D10214C067EA70E087E294E00E940F205C
:101E90004AE050E06091D30287E294E00E94312151
:101EA00065EA70E087E294E00E944D2061E08DE0F9
:101EB0000E94681D61E085E00E94681D61E086E087
:101EC0000E94681D61E087E00E94681D88E19CEF28
:101ED0009093D9028093D8029093DB028093DA0228
:101EE0009093DD028093DC029093DF028093DE0208
:101EF0009093E1028093E0029093E3028093E202E8
:101F0000089580914A0390E020914B03821B910930
:101F1000089520914B0380914A03281750F4E22F33
:101F2000F0E0E45BFC4F808190E02F5F20934B0357
:101F300008958FEF9FEF0895E0914B0380914A033E
:101F4000E81730F4F0E0E45BFC4F808190E0089506
:101F50008FEF9FEF08950895CF92DF92EF92FF9257
:101F60000F931F93CF93DF937C01CB018A012091C4
:101F70002603222389F0EB016B01C40ED51ECC157C
:101F8000DD0569F06991D701ED91FC910190F08137
:101F9000E02DC7010995F3CF642F0E946711C80196
:101FA000DF91CF911F910F91FF90EF90DF90CF9035
:101FB0000895CF93DF931F92CDB7DEB76983209149
:101FC00026032223D1F020912703203240F021E084
:101FD00030E0FC013383228380E090E015C08091E3
:101FE0002803E82FF0E0E75DFC4F998190838F5F35
:101FF000809328038093270305C061E0CE010196FA
:102000000E94671181E090E00F90DF91CF910895D9
:10201000FC011382128248EE53E060E070E04483DA
:1020200055836683778386E192E091838083089568
:1020300010924B0310924A03109228031092270328
:102040000C94AA1081E080932603609349031092B8
:1020500028031092270308950F93062F21E0409143
:10206000270369E273E0809149030E9410111092E6
:10207000280310922703109226030F9108958F9240
:102080009F92AF92BF92CF92DF92EF92FF920F9307
:102090001F93CF93DF93EC01F62ED42E4801590104
:1020A000EE2019F10E9422101E2D143008F013E0CA
:1020B0001150B8F0E881F98128E0129FB001112495
:1020C000A501940104C056954795379527956A95C3
:1020D000D2F7CA01B9010190F081E02DCE01099536
:1020E000E7CF60E0CE010E942C104D2D413208F068
:1020F00040E22C2D6CE473E08F2D0E94C8101092EA
:102100004B0380934A03DF91CF911F910F91FF9072
:10211000EF90DF90CF90BF90AF909F908F900895F9
:10212000CF92EF920F931F93C22EE12C00E010E0AC
:1021300098010E943F101F910F91EF90CF9008954A
:1021400021E00C94901061E00C942C108AE193E053
:102150000C9408101092D90381E08093D703109259
:10216000D60361E082E10E94A11D61E083E10E944B
:10217000A11DE9EBF0E080818E7F808380818D7FDF
:10218000808388E48093B80085E48093BC00089540
:10219000413208F043C09091D9039111FCCF91E0F6
:1021A0009093D9032093D7032FEF20936C031092C1
:1021B000B103240F2093B0039093D8039091D803D8
:1021C000880F892B8093D8038091D603813061F4E6
:1021D0001092D6038091D8038093BB008091BC00FD
:1021E00083FDF8CF85EC01C085EE8093BC00809123
:1021F000D9038130E1F38091B103841710F4409149
:10220000B10322EB33E0FB01D9018A2F821B841733
:1022100018F48D918193F9CF842F089580E008956B
:102220000F93413208F04AC09091D9039111FCCF2D
:1022300092E09093D9030093D7039FEF90936C03A0
:102240001092B1034093B003FB0162EB73E0DB013A
:102250009A2F961B941718F491919D93F9CF109291
:10226000D8039091D803880F892B8093D80380914D
:10227000D603813061F41092D6038091D803809305
:10228000BB008091BC0083FDF8CF85EC01C085EEDA
:102290008093BC00222321F08091D9038230E1F3A6
:1022A00080916C038F3F61F080916C03803251F01C
:1022B00080916C03803341F483E007C081E005C066
:1022C00080E003C082E001C084E00F910895613294
:1022D00098F42091D903243089F460938E03FC0193
:1022E00080E993E0DC012A2F281B261718F421919E
:1022F0002D93F9CF80E0089581E0089582E008955C
:1023000085ED8093BC008091BC0084FDFCCF1092D1
:10231000D903089585EC8093BC001092D9030895E9
:102320001F920F920FB60F9211242F933F934F934A
:102330005F936F937F938F939F93AF93BF93EF932D
:10234000FF938091B900887F803609F49EC078F5AC
:10235000883209F45DC090F4803109F456C038F435
:10236000882309F4F5C0883009F44FC0F5C08831DE
:1023700009F44EC0803209F45FC0EEC0803409F425
:102380006AC058F4803309F457C0883309F0E4C0B8
:1023900080936C030E948A11DFC0803509F44FC01E
:1023A000883509F45DC0883409F0D6C0D3C08839B7
:1023B00009F4C4C0A8F4883709F467C038F4883633
:1023C00009F463C0803709F460C0C6C0883809F4D6
:1023D000B5C0803909F45FC0803809F0BDC05BC06A
:1023E000803B09F483C038F4803A09F466C0883A27
:1023F00009F47CC0B1C0803C09F4A4C0883C09F455
:10240000A1C0883B09F487C0A7C08091D80310C041
:102410009091B1038091B003981770F5E091B103EA
:1024200081E08E0F8093B103F0E0EE54FC4F808189
:102430008093BB0085EC83C080936C038BC0E091DC
:10244000B10381E08E0F8093B1038091BB00F0E077
:10245000EE54FC4F80839091B1038091B0036BC028
:10246000E091B10381E08E0F8093B1038091BB00B6
:10247000F0E0EE54FC4F80838091D70381116AC055
:1024800081E08093D60384EA5EC083E08093D90321
:1024900010926D03CFCF80916D03803208F04EC053
:1024A000E0916D0381E08E0F80936D038091BB00FE
:1024B000F0E0E259FC4F8083BDCF0E948A118091E9
:1024C0006D03803230F4E0916D03F0E0E259FC4F8F
:1024D000108260916D0370E0E091D203F091D3031C
:1024E0008EE693E0099510926D0336C084E08093E8
:1024F000D90310928F0310928E03E091D403F091D0
:10250000D503099580918E03811105C081E08093E8
:102510008E0310929003E0918F0381E08E0F8093E1
:102520008F03F0E0E057FC4F80818093BB009091D7
:102530008F0380918E03981708F47CCF85E88093F1
:10254000BC000AC085EC8093BC001092D90304C083
:1025500010926C030E948011FF91EF91BF91AF9197
:102560009F918F917F916F915F914F913F912F91AB
:102570000F900FBE0F901F90189520911C04309162
:102580001D0428173907B9F49091DA038091DB0311
:10259000981789F0E091DA03F0E0E452FC4F808173
:1025A0002091DA0330E02F5F3F4F2F7333272093C2
:1025B000DA0390E008958FEF9FEF08951F93CF9374
:1025C000DF93DC015C968D919C915D97009749F4B7
:1025D00081E090E013969C938E93129780E090E0B8
:1025E0003BC05196ED91FC91529750962C9150978B
:1025F000322F30951FB75E964C915E9741FB77273F
:1026000070F941FD6095F8944081772311F0422BD9
:1026100001C043234083EC012197F1F748E050814A
:1026200060FF02C0522B01C053235083EC0121975D
:10263000F1F76695415099F78081772311F0832354
:1026400001C0822B80831FBF5C968D919C915D970A
:102650000197F1F781E090E0DF91CF911F9108950C
:10266000089520911C0430911D042817390781F426
:102670009091DA038091DB03981751F0E091DA032F
:10268000F0E0E452FC4F8081992787FD90950895F2
:102690008FEF9FEF089520911C0430911D0428179F
:1026A000390771F48091DB032091DA0390E0805CBC
:1026B0009F4F821B910960E470E00E947A26089582
:1026C00080E090E00895E0911C04F0911D04E8176B
:1026D000F90769F4A389B4899C9185898095892338
:1026E0008C9310921D0410921C0481E0089580E0E8
:1026F0000895CF93DF93EC018A8D9B8D892BF1F0A8
:1027000080911C0490911D048C179D07B9F00097CF
:1027100011F00E9463138E8D8E7F8E8F1092DB03DB
:102720001092DA03D0931D04C0931C04EB89FC893A
:1027300080819D89892B808381E001C080E0DF91C9
:10274000CF9108951F920F920FB60F9211242F93DD
:102750003F934F935F936F937F938F939F93AF9329
:10276000BF93EF93FF93E0911C04F0911D04309709
:1027700009F451C0868DA685B785958581FF04C073
:102780008C91892329F447C08C91892309F043C097
:10279000A389B4899C918589809589238C938689A6
:1027A00097890197F1F7208D318DA685B7857585BD
:1027B00058E040E0C9010197F1F7842F90E095952A
:1027C0008795482F6C91672309F04068515091F725
:1027D000868D81FD40958091DB0390E001968F739B
:1027E00099272091DA03281749F0A091DB03B0E084
:1027F000A452BC4F4C938093DB0303C0868D816051
:10280000868F828D938D0197F1F7A389B4898C917E
:102810009589892B8C93FF91EF91BF91AF919F91F7
:102820008F917F916F915F914F913F912F910F9079
:102830000FBE0F901F90189526E232E0FC01318305
:1028400020830C9463131F93CF93DF93EC01162F17
:102850006E8D6695617081E06827812F0E94A11DB1
:1028600061E0812F0E94681D812F90E0FC01E557F7
:10287000F54FE491E88BFC01E156F54FE491F0E06F
:10288000EE0FFF1FE354F54F859194919A8B898B3E
:10289000DF91CF911F9108951F93CF93DF93EC01A8
:1028A000162F60E0812F0E94681D8E8D81FD04C06F
:1028B00061E0812F0E94A11D1C87812F90E0FC0107
:1028C000E557F54FE491ED87FC01E156F54FE491B2
:1028D000F0E0EE0FFF1FED54F54F859194919F8727
:1028E0008E87DF91CF911F910895FF920F931F93D1
:1028F000CF93DF93EC01F62E522F1B821A8208EE43
:1029000013E020E030E00C831D832E833F8386E2BA
:1029100092E0998388831F8A1E8A198E188E1B8ED7
:102920001A8E1D8E1C8E8E8D8E7F50FB81F98E8FA0
:10293000642FCE010E9423146F2DCE01DF91CF9121
:102940001F910F91FF900C944C14CF93DF93EC01E7
:102950009A01AB011B8E1A8E198E188E1F8A1E8A41
:1029600060E079E08DE390E00E94B026C901243058
:10297000310520F0B9016350710902C061E070E0D7
:102980007D8F6C8FEC85E63108F068C0B9017695D3
:1029900067956431710518F06351710902C061E0F7
:1029A00070E07F8B6E8B069718F0C901059702C007
:1029B00081E090E0998F888FC901880F991F820F5D
:1029C000931F96958795969587958D30910510F074
:1029D0000C9702C081E090E09B8F8A8F2091680065
:1029E000E83050F091E0EE3008F490E081E001C072
:1029F000880F9A95EAF701C084E0822B80936800E3
:102A00002C85283038F02E3040F0263148F48CE602
:102A100090E008C08DE690E005C08BE690E002C033
:102A200080E090E09C8B8B8B283030F481E001C0FB
:102A3000880F2A95EAF70DC0822F90E02E3010F40F
:102A4000089701C00E9791E001C0990F8A95EAF7A7
:102A5000892F8D8B8C8D9D8D0197F1F7CE01DF91A4
:102A6000CF910C947913EF92FF920F931F93CF9312
:102A7000DF9300D0CDB7DEB7062F142F682F8AE181
:102A800093E029833A830E942210602F8AE193E029
:102A90000E94D90F2981022FE22E3A81F32E8E2D2A
:102AA000801B811740F4F70161917F018AE193E077
:102AB0000E94D90FF4CF8AE193E00E94A31091E025
:102AC000811190E0892F0F900F90DF91CF911F918E
:102AD0000F91FF90EF900895CF93DF931F92CDB7A2
:102AE000DEB749839E012F5F3F4F41E00E943315BF
:102AF0000F90DF91CF910895DF92EF92FF920F93A5
:102B00001F93CF93DF93C62F042F7901682F8AE19B
:102B100093E00E9422106C2F8AE193E00E94D90F6B
:102B200010E0000F111FD12CCD2DD0E0C017D10720
:102B30008CF4CC0FDD1FCE0DDF1D69818AE193E09F
:102B40000E94D90F68818AE193E00E94D90FD39443
:102B5000D394EACF8AE193E00E94A31091E081111F
:102B600090E0892FDF91CF911F910F91FF90EF900F
:102B7000DF900895CF93DF9300D0CDB7DEB75A83AF
:102B800049839E012F5F3F4F41E00E947C150F90CB
:102B90000F90DF91CF9108953F924F925F926F9285
:102BA0007F928F929F92AF92BF92CF92DF92EF92DD
:102BB000FF920F931F93CF93DF9300D000D000D0EC
:102BC000CDB7DEB7682E562E742E3A8329830E9425
:102BD0001F1C6B017C01312C412C872D90E09C83C4
:102BE0008B834801A12CB12C3714B0F5662D8AE1F6
:102BF00093E00E942210652D8AE193E00E94D90F94
:102C00008AE193E00E94A310662D8AE193E00E947E
:102C100022104B815C81431951094132510514F056
:102C200040E250E0662D8AE193E00E94A0108AE124
:102C300093E00E94810F892B59F10115110579F15B
:102C40000E941F1C6C197D098E099F096815790562
:102C50008A059B0520F11CC00115110589F10E9410
:102C60001F1C6C197D098E099F0920E030E0601758
:102C700071078207930720F1872D90E0242D3327D9
:102C800027FD309528173907DCF444244A9418C0EE
:102C9000872D90E2971508F480E2380EA5CFE981E0
:102CA000FA81E40DF11D47FCFA95FE83ED838AE17C
:102CB00093E00E94890FED81FE8180834394B7CF1A
:102CC000842D26960FB6F894DEBF0FBECDBFDF91E0
:102CD000CF911F910F91FF90EF90DF90CF90BF9019
:102CE000AF909F908F907F906F905F904F903F90AC
:102CF00008950F931F9389019A0141E00E94CC151A
:102D00001F910F910895DF92EF92FF920F931F93FF
:102D1000CF93DF931F92CDB7DEB7D42E7901980100
:102D2000AE014F5F5F4F0E94791661E070E001C015
:102D3000660FDA94EAF799819623F70190830F9052
:102D4000DF91CF911F910F91FF90EF90DF90089549
:102D5000CF92DF92EF92FF920F931F93CF93DF9367
:102D60001F92CDB7DEB7C42ED22E9701AE014F5FB2
:102D70005F4F0E9479168823F1F04C2D50E04D19D9
:102D800051094F5F5F4F61E070E002C0660F771F2F
:102D9000DA94E2F761507109042E01C0660F0A94BB
:102DA000EAF72981262330E002C0359527954A9518
:102DB000E2F7F80120830F90DF91CF911F910F91DF
:102DC000FF90EF90DF90CF900895EF92FF920F93D6
:102DD0001F93CF93DF931F92CDB7DEB7182F062F27
:102DE000F42EE22E20910C0130910D01AE014F5FC7
:102DF0005F4F0E947916898121E030E00F2C01C0DD
:102E0000220F0A94EAF7EE2019F0482F422B03C054
:102E1000422F409548234983602F812F0E946C15D3
:102E20000F90DF91CF911F910F91FF90EF90089538
:102E3000DF92EF92FF920F931F93CF93DF931F9236
:102E4000CDB7DEB7F82EE62ED42E122F20910C012E
:102E500030910D01AE014F5F5F4F0E9479168823BC
:102E600019F14D2D50E0411B51094F5F5F4FE1E0DB
:102E7000F0E002C0EE0FFF1F1A95E2F73197042E23
:102E800001C0EE0F0A94EAF701C0000F4A95EAF775
:102E90004E2F409589814823E0234E2B49836E2D88
:102EA0008F2D0E946C1501C080E00F90DF91CF91B3
:102EB0001F910F91FF90EF90DF90089528E6FC019D
:102EC00020830895462F69E1FC0180810C946C15E4
:102ED0000F93062F23E045E06AE1FC0180810E9408
:102EE00018170F9108950F93062F23E042E06AE12F
:102EF000FC0180810E9418170F9108950F93062FEF
:102F000022E044E06BE1FC0180810E9418170F91E0
:102F100008950F93062F22E044E06CE1FC018081CC
:102F20000E9418170F910895462F6FE1FC018081D0
:102F30000C946C15462F60E2FC0180810C946C159A
:102F4000462F61E2FC0180810C946C15462F62E2F1
:102F5000FC0180810C946C15643048F4262F220FFC
:102F6000260F2B5D622FFC0180810C946C15089557
:102F7000462F68E3FC0180810C946C15CF93DF939E
:102F8000EC0120910C0130910D01AC014F5F5F4FBE
:102F90006AE388810E9479168981DF91CF91089533
:102FA000262F46E06AE6FC0180810C94E516262F68
:102FB00045E06AE6FC0180810C94E51621E042E0E0
:102FC0006AE6FC0180810C94E51621E041E06AE6A6
:102FD000FC0180810C94E51621E047E06BE6FC01E2
:102FE00080810C94E516262F46E06BE6FC0180817B
:102FF0000C94E5160F93062F23E042E06BE6FC01EC
:1030000080810E9418170F910895CF93DF93EC01F0
:1030100061E00E94FA1760E0CE010E947E1760E036
:10302000CE010E94891760E0CE01DF91CF910C9410
:10303000F3170F931F93CF93DF93EC0100910C01D3
:1030400010910D019C012F5F3F4F42E062E78881A4
:103050000E94CC15898190E0982F88272A81822BA5
:10306000DF91CF911F910F9108950F931F939B01B3
:1030700000910C0110910D0164E7FC0180810E9418
:10308000CC151F910F910895EF92FF920F931F930C
:10309000CF93DF93EC01E0900C01F0900D018C01D7
:1030A0000F5F1F4F26E046E065E788810E94A81663
:1030B0008981DF91CF911F910F91FF90EF9008953B
:1030C0000E94441891E0843309F090E0892F08951C
:1030D0000F931F93CF93DF93EC0100910C0110919C
:1030E0000D019C012F5F3F4F40E060E088810E940E
:1030F00083168981DF91CF911F910F910895262F1B
:1031000040E060E0FC0180810C94E516EF92FF92B4
:103110000F931F93CF93DF93EC01E0900C01F0909D
:103120000D018C010F5F1F4F26E046E060E08881B3
:103130000E94A8168981DF91CF911F910F91FF9076
:10314000EF9008950F93062F26E046E060E0FC0123
:1031500080810E9418170F910895EF92FF920F93AC
:103160001F93CF93DF93EC01E0900C01F0900D01E1
:103170008C010F5F1F4F26E046E061E088810E94CE
:10318000A8168981DF91CF911F910F91FF90EF9049
:1031900008950F93062F26E046E061E0FC01808150
:1031A0000E9418170F910895EF92FF920F931F93AB
:1031B000CF93DF93EC01E0900C01F0900D018C01B6
:1031C0000F5F1F4F26E046E062E088810E94A8164C
:1031D0008981DF91CF911F910F91FF90EF9008951A
:1031E0000F93062F26E046E062E0FC0180810E94FA
:1031F00018170F910895AB016AE0FC0180810C94CF
:10320000BA15AB0163E1FC0180810C94BA15AB01E6
:1032100065E1FC0180810C94BA15AB0167E1FC010A
:1032200080810C94BA15262F47E06AE6FC01808164
:103230000C94E51621E043E06AE6FC0180810C94E1
:10324000E5166F712111606241116064462F6DE6D1
:10325000FC0180810C946C15462F6EE6FC01808188
:103260000C946C15CF93DF93EC0120910C013091FD
:103270000D01AC014F5F5F4F6FE688810E947916A8
:103280008981DF91CF9108955F926F927F928F92A3
:103290009F92AF92BF92CF92DF92EF92FF920F93E5
:1032A0001F93CF93DF937C015B016A01622E702E26
:1032B00020E040E0662D0E942119602FC7010E9486
:1032C0002C19C0E0D0E0812C99249394CC15DD0515
:1032D000A8F5CE014096C816D90618F45C2C5C1AE5
:1032E00002C0A0E15A2E252D30E0C40187199109B2
:1032F0008217930714F4572C519400910C011091EC
:103300000D0195012C0F3D1F452D6FE6F7018081C2
:103310000E94CC15C50DD11D750CCC15DD05B0F680
:10332000711001C0639420E040E0662DC7010E9447
:103330002119672DC7010E942C19C8CFDF91CF91A9
:103340001F910F91FF90EF90DF90CF90BF90AF90C3
:103350009F908F907F906F905F9008952F923F92F3
:103360004F925F926F927F928F929F92AF92BF9295
:10337000CF92DF92EF92FF920F931F93CF93DF9341
:1033800000D000D01F92CDB7DEB79D838C837B83A6
:103390006A834A01322ED02EE98220E040E0632D7C
:1033A0000E942119602F8C819D810E942C19E98037
:1033B000EE2029F080E190E00E940A275C01CC20F9
:1033C00031F080E190E00E940A27582E492EE12C2E
:1033D000F12CE814F90408F07AC0C7014096881669
:1033E000990618F4282C2E1802C010E1212E222D47
:1033F00030E080E091E08D1991098217930714F471
:103400002D2C2194EA81FB81EE0DFF1DCC2059F07B
:10341000852DA52DB42D9A2F981B921530F49491DB
:103420009D933196F8CF5E2E4F2E252D342D422DB3
:103430006FE6AC81BD818C910E943315622C712C9A
:10344000B981BB2369F1A114B10451F120E040E03E
:10345000632D8C819D810E9421196D2D8C819D8110
:103460000E942C1900910C0110910D019501422D23
:103470006FE6EC81FD8180810E94CC15A301B5012E
:10348000852D942D0E94FB28892B51F0C5010E94A7
:10349000A227CC2049F1852D942D0E94A22724C07B
:1034A000E60CF71CD20CE814F90408F092CFD11006
:1034B00001C0339420E040E0632D8C819D810E9407
:1034C00021196D2D8C819D810E942C1982CFF9814B
:1034D000FF2319F0C5010E94A227CC2039F0852DC9
:1034E000942D0E94A22702C080E001C081E00F90CD
:1034F0000F900F900F900F90DF91CF911F910F9130
:10350000FF90EF90DF90CF90BF90AF909F908F9003
:103510007F906F905F904F903F902F900895CF9243
:10352000EF920F93CC24C3940E94AE190F91EF90A9
:10353000CF9008952F923F924F925F926F927F9219
:103540008F929F92AF92BF92CF92DF92EF92FF92B3
:103550000F931F93CF93DF9300D01F92CDB7DEB7A9
:103560004C017B836A833A01D22E222331F088E01A
:1035700090E00E940A27182FF92E212C312C2614B6
:10358000370408F051C0EA81FB81E20DF31DC1014F
:1035900003965C01DD20C1F04491F10131968A81EE
:1035A0009B81E80FF91F0491F1013296E80FF91F92
:1035B0005490511044C0F4E02F0E311CEA81FB817D
:1035C000EA0DFB1D84910DC0408101815280EA818A
:1035D000FB81E80FF91F51100DC084E0280E311C4B
:1035E00080818130D1F442E368E3F40180810E945C
:1035F0006C15C5CF1E2FFF2E452C512CC12CEE244F
:10360000E394242FA201612F7F2DC4010E94AE19E3
:1036100012012A0C3B1C8111B2CFDD2061F0812FF9
:103620009F2D0E94A22707C0DD2039F0812F9F2DFA
:103630000E94A22702C080E024C081E022C0252C85
:10364000312CF2E0F51548F4B101812F9F2D49830B
:103650000E943128182FF92E4981812F9F2DA0E03B
:10366000B0E02A813B812A0D3B1DA215B30520F64F
:10367000F901EA0FFB1F5491FC015193CF01119600
:10368000F4CF0F900F900F90DF91CF911F910F917A
:10369000FF90EF90DF90CF90BF90AF909F908F9072
:1036A0007F906F905F904F903F902F90089521E012
:1036B0000C949A1A462F60E7FC0180810C946C15DB
:1036C000462F61E7FC0180810C946C1508958230CF
:1036D000E8F4E82FF0E0EE0FFF1FE25FFE4F71838A
:1036E0006083813041F0809169008C7F842B8093CE
:1036F0006900E89A089580916900440F551F440FAE
:10370000551F837F842B80936900E99A08951F9247
:103710000F920FB60F9211242F933F934F935F9305
:103720006F937F938F939F93AF93BF93EF93FF9389
:10373000E0910E01F0910F010995FF91EF91BF917A
:10374000AF919F918F917F916F915F914F913F9139
:103750002F910F900FBE0F901F9018951F920F92F0
:103760000FB60F9211242F933F934F935F936F9354
:103770007F938F939F93AF93BF93EF93FF93E091CA
:103780001001F09111010995FF91EF91BF91AF9157
:103790009F918F917F916F915F914F913F912F9169
:1037A0000F900FBE0F901F9018951F920F920FB69B
:1037B0000F9211242F933F938F939F93AF93BF93B7
:1037C00080911F0490912004A0912104B0912204C3
:1037D00030911E0423E0230F2D3720F40196A11D04
:1037E000B11D05C026E8230F0296A11DB11D20932F
:1037F0001E0480931F0490932004A0932104B0938F
:1038000022048091230490912404A0912504B09176
:1038100026040196A11DB11D8093230490932404D6
:10382000A0932504B0932604BF91AF919F918F91EF
:103830003F912F910F900FBE0F901F9018952FB7AB
:10384000F89460911F04709120048091210490915C
:1038500022042FBF08953FB7F894809123049091DC
:103860002404A0912504B091260426B5A89B05C088
:103870002F3F19F00196A11DB11D3FBF6627782F7C
:10388000892F9A2F620F711D811D911D42E0660FD5
:10389000771F881F991F4A95D1F708958F929F929D
:1038A000AF92BF92CF92DF92EF92FF926B017C01B9
:1038B0000E942B1C4B015C01C114D104E104F104F2
:1038C000F1F00E9472230E942B1C681979098A0961
:1038D0009B09683E73408105910570F321E0C21A8F
:1038E000D108E108F10888EE880E83E0981EA11C3B
:1038F000B11CC114D104E104F10429F7DDCFFF901C
:10390000EF90DF90CF90BF90AF909F908F900895F1
:10391000789484B5826084BD84B5816084BD85B5AA
:10392000826085BD85B5816085BDEEE6F0E0808171
:1039300081608083E1E8F0E0108280818260808392
:10394000808181608083E0E8F0E080818160808315
:10395000E1EBF0E0808184608083E0EBF0E0808147
:1039600081608083EAE7F0E08081846080838081E9
:103970008260808380818160808380818068808391
:103980001092C10008958E3008F08E5087702091FB
:10399000120190E4299F90011124822B80937C00D6
:1039A00080917A00806480937A0080917A0086FD0D
:1039B000FCCF809178002091790090E0922B0895BF
:1039C0001F93CF93DF93182FEB0161E00E94681DD6
:1039D000209711F460E004C0CF3FD10539F461E0D5
:1039E000812FDF91CF911F910C94A11DE12FF0E069
:1039F000E958F54FE491E330F9F048F4E130B9F0DB
:103A0000E230A1F584B5806284BDC8BD34C0E73022
:103A1000E9F0E83019F1E43049F5809180008062E6
:103A200080938000D0938B00C0938A0024C084B51B
:103A3000806884BDC7BD1FC080918000806880936E
:103A40008000D0938900C093880015C08091B00099
:103A500080688093B000C093B3000DC08091B00027
:103A600080628093B000C093B40005C0C038D10517
:103A70000CF0B5CFAFCFDF91CF911F910895833078
:103A800081F028F4813099F08230A1F008958730D8
:103A9000A9F08830B9F08430D1F4809180008F7D16
:103AA00003C0809180008F7780938000089584B553
:103AB0008F7702C084B58F7D84BD08958091B0005A
:103AC0008F7703C08091B0008F7D8093B000089500
:103AD000CF93DF9390E0FC01E557F54F2491FC0173
:103AE000E156F54F8491882349F190E0880F991FA2
:103AF000FC01E953F54FA591B4918354954FFC0116
:103B0000C591D4919FB7611108C0F8948C9120950C
:103B100082238C93888182230AC0623051F4F89406
:103B20008C91322F309583238C938881822B8883CC
:103B300004C0F8948C91822B8C939FBFDF91CF911E
:103B400008950F931F93CF93DF931F92CDB7DEB7E6
:103B5000282F30E0F901E958F54F8491F901E55734
:103B6000F54F1491F901E156F54F04910023C9F086
:103B7000882321F069830E943F1D6981E02FF0E0D6
:103B8000EE0FFF1FE354F54FA591B4919FB7F89442
:103B90008C91611103C01095812301C0812B8C93FE
:103BA0009FBF0F90DF91CF911F910F910895FC015E
:103BB000818D228D90E0805C9F4F821B91098F73D5
:103BC00099270895FC01918D828D981731F0828D8F
:103BD000E80FF11D858D90E008958FEF9FEF089518
:103BE000FC01918D828D981761F0828DDF01A80F05
:103BF000B11D5D968C91928D9F5F9F73928F90E027
:103C000008958FEF9FEF089584E79FE1892B49F096
:103C100080E090E0892B29F00E94741F81110C94A0
:103C200000000895FC01848DDF01A80FB11DA35A87
:103C3000BF4F2C91848D90E001968F739927848FCC
:103C4000A689B7892C93A089B1898C9180648C93C3
:103C5000938D848D981306C00288F389E02D8081AE
:103C60008F7D80830895CF93DF93EC01888D882327
:103C7000C9F0EA89FB89808185FD05C0A889B989D9
:103C80008C9186FD0FC00FB607FCF5CF808185FFB4
:103C9000F2CFA889B9898C9185FFEDCFCE010E9422
:103CA000121EE7CFDF91CF910895CF92DF92FF925E
:103CB0000F931F93CF93DF931F92CDB7DEB76C01A5
:103CC00081E0D60158968C9358975B969C915B97B0
:103CD0005C968C915C97981307C05096ED91FC917F
:103CE0005197808185FD2EC0F601038D10E00F5F96
:103CF0001F4F0F731127F02EF601848DF81211C09B
:103D00000FB607FCF9CFD6015096ED91FC91519773
:103D1000808185FFF1CFC60169830E94121E6981EF
:103D2000EBCF838DE80FF11DE35AFF4F6083D6017F
:103D30005B960C935B975296ED91FC915397808123
:103D400080620CC0D6015696ED91FC915797608326
:103D50005096ED91FC91519780818064808381E041
:103D600090E00F90DF91CF911F910F91FF90DF9026
:103D7000CF900895BF92CF92DF92EF92FF92CF93B0
:103D8000DF93EC016A017B01B22EE889F98982E0B8
:103D90008083411581EE580761057105A1F060E04F
:103DA00079E08DE390E0A70196010E948E262150D4
:103DB00031094109510956954795379527952115A0
:103DC00080E1380798F0E889F989108260E874E8A2
:103DD0008EE190E0A70196010E948E2621503109C4
:103DE000410951095695479537952795EC85FD85ED
:103DF0003083EE85FF852083188EEC89FD89B082A3
:103E0000EA89FB89808180618083EA89FB898081DE
:103E100088608083EA89FB89808180688083EA8961
:103E2000FB8980818F7D8083DF91CF91FF90EF9020
:103E3000DF90CF90BF9008951F920F920FB60F9210
:103E400011242F938F939F93EF93FF93E091370467
:103E5000F09138048081E0913D04F0913E0482FDB0
:103E600012C09081809140048F5F8F732091410434
:103E7000821751F0E0914004F0E0E95DFB4F958F2F
:103E80008093400401C08081FF91EF919F918F91B9
:103E90002F910F900FBE0F901F9018951F920F92A9
:103EA0000FB60F9211242F933F934F935F936F930D
:103EB0007F938F939F93AF93BF93EF93FF9387E28B
:103EC00094E00E94121EFF91EF91BF91AF919F91DC
:103ED0008F917F916F915F914F913F912F910F90B3
:103EE0000FBE0F901F90189587E294E00E94D71D97
:103EF00021E0892B09F420E0822F089510922A04F2
:103F00001092290488EE93E0A0E0B0E080932B04A7
:103F100090932C04A0932D04B0932E0486E392E09A
:103F2000909328048093270485EC90E090933404C8
:103F30008093330484EC90E09093360480933504AE
:103F400080EC90E0909338048093370481EC90E00B
:103F500090933A048093390482EC90E090933C046F
:103F600080933B0486EC90E090933E0480933D0464
:103F700010924004109241041092420410924304A3
:103F8000089508950E94881C0E94C11F0E948F0EF0
:103F9000C4E0DEE10E948A0B2097E1F30E94041E38
:103FA000F9CFCF92DF92EF92FF920F931F93CF93AF
:103FB000DF937C016A01EB0100E010E00C151D05A8
:103FC00071F06991D701ED91FC910190F081E02DA4
:103FD000C7010995892B19F00F5F1F4FEFCFC8015B
:103FE000DF91CF911F910F91FF90EF90DF90CF90D5
:103FF00008956115710581F0DB010D900020E9F74E
:10400000AD0141505109461B570BDC01ED91FC916C
:104010000280F381E02D099480E090E00895EF9212
:10402000FF920F931F93CF93DF938C017B01C0E02E
:10403000D0E0F701EC0FFD1F6491662359F0F80101
:10404000A081B181ED91FC91C8010995892B11F0F6
:104050002196EFCFCE01DF91CF911F910F91FF906D
:10406000EF900895DC01ED91FC91DB0114964D91E8
:104070005C9115976D917C910280F381E02D0994FC
:104080000C94F91FDC01ED91FC910190F081E02D81
:10409000099462E472E00C94F91F0F931F93CF937D
:1040A000DF93EC010E940F208C01CE010E94492079
:1040B000800F911FDF91CF911F910F9108950F9362
:1040C0001F93CF93DF93EC010E9432208C01CE012D
:1040D0000E944920800F911FDF91CF911F910F9176
:1040E00008950F931F93CF93DF93EC010E94F91F64
:1040F0008C01CE010E944920800F911FDF91CF914A
:104100001F910F9108958F929F92AF92BF92DF926D
:10411000EF92FF920F931F93CF93DF93CDB7DEB74C
:10412000A1970FB6F894DEBF0FBECDBF7C01F42F70
:10413000D52ECB0119A2223008F42AE08E010F5DA2
:104140001F4F822E912CA12CB12C6F2F7D2DA501FC
:1041500094010E948E26F22FD32ECA01015011091C
:104160006A3014F4E0E301C0E7E3E60FD801EC9312
:10417000232B242B252B49F7B801C7010E94F91FD7
:10418000A1960FB6F894DEBF0FBECDBFDF91CF91E1
:104190001F910F91FF90EF90DF90BF90AF909F9095
:1041A0008F900895CF92DF92EF92FF920F931F931B
:1041B000CF93DF93EC016A017B012115310579F47E
:1041C000E881F9810190F081E02D642FDF91CF919A
:1041D0001F910F91FF90EF90DF90CF9009942A30BC
:1041E0003105E9F477FF1AC06DE20E9442208C018C
:1041F00044275527BA014C195D096E097F092AE049
:10420000CE010E948320800F911FDF91CF911F91DB
:104210000F91FF90EF90DF90CF9008952AE0B701C3
:10422000A601CE01DF91CF911F910F91FF90EF90EA
:10423000DF90CF900C9483209A01AB01662757FD45
:104240006095762F0C94D2202115310541F4DC01C4
:10425000ED91FC910190F081E02D642F09940C9474
:1042600083209A01462F50E060E070E00C942421F6
:104270004F925F926F927F928F929F92AF92BF9276
:10428000CF92DF92EF92FF920F931F93CF93DF9322
:10429000EC016A017B01B22E9A01AB01C701B601A4
:1042A0000E946126882319F065E472E027C0260188
:1042B0003701E89477F82FEF3FEF4FE75FE7C3014F
:1042C000B2010E94612681110DC02FEF3FEF4FE731
:1042D0005FE7C301B2010E943A2418161CF469E496
:1042E00072E00CC02FEF3FEF4FE75FE4C701B6016C
:1042F0000E94AE251816ACF46DE472E0CE01DF9199
:10430000CF911F910F91FF90EF90DF90CF90BF90D2
:10431000AF909F908F907F906F905F904F900C9494
:10432000F91F2FEF3FEF4FE75FECC701B6010E9487
:104330003A2487FDE1CF20E030E0A901C701B601B2
:104340000E943A2487FF0AC06DE2CE010E944220FB
:104350008C01F7FAF094F7F8F09402C000E010E056
:10436000A12C60E070E080E09FE3AB1441F020E01E
:1043700030E040E251E40E943E24A394F6CF9B013A
:10438000AC01C701B6010E9474236B017C010E943D
:10439000AB242B013C010E94D7249B01AC01C70137
:1043A000B6010E9473236B017C012AE0B301A201D4
:1043B000CE010E948320080F191FBB2039F061E550
:1043C00072E0CE010E94F91F080F191F7B2C772085
:1043D00041F120E030E040E251E4C701B6010E9423
:1043E000B9256B017C010E94A6244B01AA2497FCED
:1043F000A094BA2C2AE030E0B501A401CE010E94BD
:10440000D220080F191FC501B4010E94D9249B01B5
:10441000AC01C701B6010E9473236B017C017A9441
:10442000D6CFC801DF91CF911F910F91FF90EF90F0
:10443000DF90CF90BF90AF909F908F907F906F90C4
:104440005F904F9008950C943821FC0180819181F8
:104450000C94A227CF93DF93EC0188819981009778
:1044600011F00E94A227198218821D821C821B82D1
:104470001A82DF91CF9108950F931F93CF93DF930B
:10448000EC018B016F5F7F4F888199810E943128F9
:10449000009731F0998388831B830A8381E001C0F0
:1044A00080E0DF91CF911F910F910895CF93DF931B
:1044B000EC0188819981892B29F08A819B8186175B
:1044C000970760F4CE010E943C22882341F08C8142
:1044D0009D81892B19F4E881F981108281E0DF91B7
:1044E000CF910895EF92FF920F931F93CF93DF9395
:1044F000EC017B018A01BA010E945622811104C09D
:10450000CE010E942A2207C01D830C83B701888137
:1045100099810E941129CE01DF91CF911F910F91B6
:10452000FF90EF900895FC01118210821382128295
:10453000158214826115710559F0FB01019000206C
:10454000E9F7AF0141505109461B570B0C947222F9
:104550000895CF93DF93EC016115710561F0FB01C4
:1045600001900020E9F7AF0141505109461B570B5C
:104570000E94722202C00E942A22CE01DF91CF91B6
:104580000895EF92FF920F931F93CF93DF93CDB7D0
:10459000DEB7A1970FB6F894DEBF0FBECDBF7C018A
:1045A000CB01BA01F70111821082138212821582A7
:1045B000148242E0420F8E010F5F1F4F0E94E926D6
:1045C000BC01C7010E94A922A1960FB6F894DEBFD4
:1045D0000FBECDBFDF91CF911F910F91FF90EF9054
:1045E0000895EF92FF920F931F93CF93DF93EC0107
:1045F0007B010C811D816115710511F480E016C0ED
:104600004115510591F0040F151FB8010E94562263
:104610008823A1F3288139818C819D81B701820F84
:10462000931F0E9411291D830C8381E0DF91CF919C
:104630001F910F91FF90EF9008956115710559F04A
:10464000FB0101900020E9F7AF0141505109461BE1
:10465000570B0C94F12280E00895EF92FF920F9394
:104660001F93CF93DF93CDB7DEB764970FB6F8945F
:10467000DEBF0FBECDBF7C01CB01BA018E010F5F43
:104680001F4F22E044E00E94E926FC010190002037
:10469000E9F7AF0141505109481B590BBC01C70153
:1046A0000E94F12264960FB6F894DEBF0FBECDBF14
:1046B000DF91CF911F910F91FF90EF900895CF93CD
:1046C000DF93EC01FB0144815581608171810E947F
:1046D000F122811103C0CE010E942A22CE01DF9176
:1046E000CF91089508955058BB27AA270ED0FCC13A
:1046F000EDD130F0F2D120F031F49F3F11F41EF4EF
:10470000BDC10EF4E095E7FBB3C1E92FFED180F304
:10471000BA17620773078407950718F071F49EF5BE
:1047200016C20EF4E0950B2EBA2FA02D0B01B90185
:1047300090010C01CA01A0011124FF27591B99F017
:10474000593F50F4503E68F11A16F040A22F232F23
:10475000342F4427585FF3CF469537952795A79573
:10476000F0405395C9F77EF41F16BA0B620B730B1A
:10477000840BBAF09150A1F0FF0FBB1F661F771F8B
:10478000881FC2F70EC0BA0F621F731F841F48F440
:10479000879577956795B795F7959E3F08F0B3CFC6
:1047A0009395880F08F09927EE0F979587950895B0
:1047B0008DD158F080E891E009F49EEF8ED128F079
:1047C00040E851E059F45EEF09C058C1C0C1E92F7B
:1047D000E0789BD168F3092E052AC1F32617370725
:1047E0004807590738F00E2E07F8E02569F0E02554
:1047F000E0640AC0EF6307F8009407FADB01B9012F
:104800009D01DC01CA01AD01EF9347D06DD10AD003
:104810005F91552331F02BED3FE049E450FD49EC29
:1048200063CF0895DF93DD27B92FBF7740E85FE3BB
:104830001616170648075B0710F4D92F93D19F93DC
:104840008F937F936F933AD2E8E6F0E01AD14CD180
:104850002F913F914F915F9198D1DD2349F090586E
:10486000A2EA2AED3FE049EC5FE3D0785D274DDF17
:10487000DF913AC1D9D008F481E008950CD034C159
:104880002CD140F023D130F021F45F3F19F0F0C07B
:1048900051115EC1F3C039D198F39923C9F355235F
:1048A000B1F3951B550BBB27AA2762177307840723
:1048B00038F09F5F5F4F220F331F441FAA1FA9F3D9
:1048C00033D00E2E3AF0E0E830D091505040E695CB
:1048D000001CCAF729D0FE2F27D0660F771F881F2C
:1048E000BB1F261737074807AB07B0E809F0BB0B1B
:1048F000802DBF01FF2793585F4F2AF09E3F51053F
:1049000068F0B6C025C15F3FECF3983EDCF38695B6
:1049100077956795B795F7959F5FC9F7880F911DB4
:104920009695879597F90895E1E0660F771F881FA0
:10493000BB1F621773078407BA0720F0621B730B53
:10494000840BBA0BEE1F88F7E095089504D06894A5
:10495000B111FEC00895E1D088F09F5790F0B92FB3
:104960009927B751A0F0D1F0660F771F881F991FC4
:104970001AF0BA95C9F712C0B13081F0E8D0B1E0B1
:104980000895E5C0672F782F8827B85F39F0B93FC1
:10499000CCF3869577956795B395D9F73EF49095C6
:1049A0008095709561957F4F8F4F9F4F0895E89444
:1049B00009C097FB3EF490958095709561957F4F67
:1049C0008F4F9F4F9923A9F0F92F96E9BB27939515
:1049D000F695879577956795B795F111F8CFFAF425
:1049E000BB0F11F460FF1BC06F5F7F4F8F4F9F4F56
:1049F00016C0882311F096E911C0772321F09EE8B4
:104A0000872F762F05C0662371F096E8862F70E019
:104A100060E02AF09A95660F771F881FDAF7880FF3
:104A20009695879597F90895990F0008550FAA0B49
:104A3000E0E8FEEF16161706E807F907C0F01216B1
:104A40001306E407F50798F0621B730B840B950BB4
:104A500039F40A2661F0232B242B252B21F4089509
:104A60000A2609F4A140A6958FEF811D811D0895A6
:104A700097F99F6780E870E060E008959FEF80EC11
:104A80000895DF93CF931F930F93FF92EF92DF92DE
:104A90007B018C01689405C0DA2EEF0176D0FE010F
:104AA000E894A5912591359145915591AEF3EF018B
:104AB0002CDEFE019701A801DA9479F7DF90EF90E0
:104AC000FF900F911F91CF91DF91089500240A94D8
:104AD0001616170618060906089500240A941216D9
:104AE0001306140605060895092E0394000C11F40C
:104AF000882352F0BB0F40F4BF2B11F460FF04C0B9
:104B00006F5F7F4F8F4F9F4F089557FD9058440F11
:104B1000551F59F05F3F71F04795880F97FB991F1C
:104B200061F09F3F79F087950895121613061406D9
:104B3000551FF2CF4695F1DF08C016161706180666
:104B4000991FF1CF86957105610508940895E89441
:104B5000BB2766277727CB0197F9089565DF08F40F
:104B60008FEF08959B01AC0160E070E080E89FE367
:104B700085CE0BD0B9CFAADF28F0AFDF18F0952390
:104B800009F076CF7BCF1124E3CFBFDFA0F3959F51
:104B9000D1F3950F50E0551F629FF001729FBB2724
:104BA000F00DB11D639FAA27F00DB11DAA1F649FD0
:104BB0006627B00DA11D661F829F2227B00DA11D83
:104BC000621F739FB00DA11D621F839FA00D611D09
:104BD000221F749F3327A00D611D231F849F600D2A
:104BE000211D822F762F6A2F11249F5750408AF063
:104BF000E1F088234AF0EE0FFF1FBB1F661F771FEF
:104C0000881F91505040A9F79E3F510570F030CF5A
:104C10009FCF5F3FECF3983EDCF3869577956795E1
:104C2000B795F795E7959F5FC1F7FE2B880F911D0C
:104C30009695879597F9089511F40EF41FCF45C006
:104C40006CDFD0F39923D9F3CEF39F57550B87FF31
:104C50004AD00024A0E640EA9001805856959795E6
:104C600028F4805C660F771F881F20F0261737070F
:104C7000480730F4621B730B840B202931294A2B1F
:104C8000A69517940794202531254A2758F7660FD3
:104C9000771F881F20F026173707480730F4620B6C
:104CA000730B840B200D311D411DA09581F7B901B7
:104CB000842F9158880F9695879508959B01AC0194
:104CC00058CFB2DE880B990B08959F3F31F0915079
:104CD00020F4879577956795B795880F911D9695E0
:104CE000879597F9089591505040660F771F881F58
:104CF000D2F7089597FB072E16F4009407D077FD9E
:104D000009D00E94CF2607FC05D03EF490958195EE
:104D10009F4F0895709561957F4F0895A1E21A2ED7
:104D2000AA1BBB1BFD010DC0AA1FBB1FEE1FFF1F4F
:104D3000A217B307E407F50720F0A21BB30BE40B9F
:104D4000F50B661F771F881F991F1A9469F76095E6
:104D50007095809590959B01AC01BD01CF010895A0
:104D6000052E97FB1EF400940E94C72657FD07D01E
:104D70000E948E2607FC03D04EF40C94C726509553
:104D80004095309521953F4F4F4F5F4F0895909537
:104D90008095709561957F4F8F4F9F4F0895AA1B07
:104DA000BB1B51E107C0AA1FBB1FA617B70710F016
:104DB000A61BB70B881F991F5A95A9F78095909548
:104DC000BC01CD010895EE0FFF1F0590F491E02D79
:104DD0000994EF920F931F93CF93DF93E80147FF5E
:104DE00002C034E101C034E0E42FFF27E7FDF09575
:104DF000F7FF03C0F195E195F109E32E022F2E2F65
:104E0000AE010E941829CE01DF91CF911F910F9121
:104E1000EF900895CF93DF938230910510F482E0F4
:104E200090E0E091C604F091C70420E030E0A0E0FB
:104E3000B0E0309739F14081518148175907B8F0F7
:104E40004817590771F482819381109729F01396BE
:104E50009C938E9312972CC09093C7048093C604A2
:104E600027C02115310531F04217530718F0A90169
:104E7000DB0101C0EF019A01BD01DF010280F38176
:104E8000E02DD7CF21153105F9F0281B390B24303F
:104E9000310580F48A819B816115710521F0FB0148
:104EA0009383828304C09093C7048093C604FE0159
:104EB000329644C0FE01E20FF31F8193919322507A
:104EC0003109398328833AC02091C4043091C50444
:104ED000232B41F420910201309103013093C5044A
:104EE0002093C40420910001309101012115310566
:104EF00041F42DB73EB74091040150910501241BA8
:104F0000350BE091C404F091C504E217F307A0F457
:104F10002E1B3F0B2817390778F0AC014E5F5F4F0F
:104F20002417350748F04E0F5F1F5093C504409378
:104F3000C4048193919302C0E0E0F0E0CF01DF91DF
:104F4000CF910895CF93DF93009709F487C0FC01B8
:104F5000329713821282C091C604D091C704209761
:104F600081F420813181280F391F8091C4049091F0
:104F7000C5048217930779F5F093C504E093C40440
:104F80006DC0DE0120E030E0AE17BF0750F412968E
:104F90004D915C9113979D014115510509F1DA017D
:104FA000F3CFB383A28340815181840F951F8A1769
:104FB0009B0771F48D919C911197840F951F029618
:104FC0009183808312968D919C9113979383828312
:104FD0002115310529F4F093C704E093C6043EC0BF
:104FE000D9011396FC93EE9312974D915D91A40F06
:104FF000B51FEA17FB0779F480819181840F951F13
:105000000296D90111969C938E9382819381139677
:105010009C938E931297E0E0F0E08A819B81009749
:1050200019F0FE01EC01F9CFCE01029628813981F9
:10503000820F931F2091C4043091C50428173907AB
:1050400069F4309729F41092C7041092C60402C084
:1050500013821282D093C504C093C404DF91CF9110
:105060000895A0E0B0E0E7E3F8E20C94722BEC01C5
:10507000CB01209719F40E940A27B8C0FE01E60F61
:10508000F71F9E0122503109E217F30708F4ACC064
:10509000D9010D911C91119706171707B8F005302B
:1050A000110508F49FC0A80144505109461757073D
:1050B00008F498C002501109061B170B01931193B5
:1050C0006D937C93CF010E94A2278CC05B01A01A34
:1050D000B10A4E01800E911EA091C604B091C70482
:1050E000612C712C60E070E0109709F449C0A8159C
:1050F000B905C9F5ED90FC901197670142E0C40E27
:10510000D11CCA14DB0478F147018A189B0864019A
:1051100042E0C40ED11C1296BC9012971396AC912B
:10512000B5E0CB16D10440F0B282A3839182808295
:10513000D9018D939C9309C00E5F1F4F0E0D1F1D4B
:10514000F90111830083EB2DFA2F6115710531F000
:10515000DB011396FC93EE93129744C0F093C704BF
:10516000E093C6043FC06D917C9111976616770657
:1051700008F43B01BD0112960D90BC91A02DB4CF57
:105180006091C4047091C50468157905E9F4681646
:105190007906D0F44091000150910101411551056B
:1051A00041F44DB75EB76091040170910501461B53
:1051B000570BE417F507C0F4F093C504E093C4045B
:1051C000F901918380830EC00E940A277C01009719
:1051D00059F0A801BE010E940829CE010E94A22711
:1051E000C70104C0CE0102C080E090E0CDB7DEB7B9
:1051F000EEE00C948E2BFB01DC0104C08D9101903C
:10520000801921F441505040C8F7881B990B08952C
:10521000FB01DC0102C001900D9241505040D8F7D3
:105220000895FB01DC0101900D920020E1F7089543
:105230006F927F929F92AF92BF92CF92DF92EF9246
:10524000FF920F931F93CF93DF93CDB7DEB72997CC
:105250000FB6F894DEBF0FBECDBF6A01B22E102F7D
:105260000C3320F4FF24F394F00E02C04CE3F42E30
:105270000F2D27E0AE014F5F5F4F0E94962A798184
:10528000272F2970213031F0E1FC06C0E0FC06C078
:1052900060E005C06DE203C06BE201C060E2AE2DCC
:1052A000A07173FF36C0662311F084E001C083E073
:1052B0008B1510F4B81A01C0B12CA1110BC0F60166
:1052C0008B2D90E2882319F091938150FBCFCB0C6A
:1052D000D11CB12C662331F0F601608396012F5F5B
:1052E0003F4F6901C6010396E2FE05C02EE4F601B8
:1052F000208331E404C02EE6F601208331E63183B9
:105300002283FC012B2D30E22223F1F13193215035
:10531000FBCF72FF40C0662311F084E001C083E040
:105320008B1510F4B81A01C0B12CA1110BC0F601F5
:105330008B2D90E2882319F091938150FBCFCB0CF9
:10534000D11CB12C662331F0F601608396012F5FEA
:105350003F4F6901C6010396E2FE07C029E4F6014A
:1053600020832EE4218326E406C029E6F60120836B
:105370002EE6218326E62283FC012B2D30E2222318
:1053800019F031932150FBCFFC01EB0DF11D108280
:105390008EEF9FEFB7C0B1E0611101C0B0E04B2FBD
:1053A00050E01816190624F49C012F5F3F4F02C0ED
:1053B00021E030E0240F351F112329F0412F50E068
:1053C0004F5F5F4F02C040E050E0420F531F2B2D54
:1053D00030E04217530714F4B41A01C0B12C2E2D3B
:1053E000287159F4F6012B2D30E2222319F0319364
:1053F0002150FBCFCB0CD11CB12CBB2331F0F601DB
:10540000608396012F5F3F4F6901A1110BC0F60128
:105410002B2D30E3222319F031932150FBCFCB0CFD
:10542000D11CB12CF80E0A81372F3071A32E74FFD6
:1054300003C0013309F4FA941F142CF42F2D2930E2
:1054400018F028E001C021E0682F392F97FF02C033
:1054500060E030E0462F532F612C712C3EE2932EFA
:10546000BC01621B71099B01DC01A41BB50BE1E0CF
:10547000F0E0EC0FFD1FAE0FBF1FE12EF12CF194F9
:10548000E194F1084F3FFFEF5F0731F4F60190829E
:10549000B6016F5F7F4F6B01841795074CF024179F
:1054A000350734F4BD01660D771DFB01118101C084
:1054B00010E341505109FFEF6F1A7F0AB6016F5F89
:1054C0007F4F4E155F0524F0F60110836B01DACF94
:1054D0004817590739F4063320F4053319F4A1109D
:1054E00001C011E3F6011083FB018B2D90E28823AC
:1054F00019F091938150FBCFFB01EB0DF11D108250
:1055000080E090E029960FB6F894DEBF0FBECDBFC5
:10551000DF91CF911F910F91FF90EF90DF90CF908F
:10552000BF90AF909F907F906F900895283008F0C3
:1055300027E03327DA01990F311D87FD916000962E
:105540006105710539F432602E5F3D9330E32A9591
:10555000E1F708959F3F30F080387105610509F04B
:105560003C5F3C5F3D93913008F08068911DDF9374
:10557000CF931F930F93FF92EF92192F987F9695D9
:10558000E92F96959695E90FFF27E55DF44F99274A
:105590003327EE24FF24A701E70105900894079420
:1055A00028F4360FE71EF81E491F511D660F771F9E
:1055B000881F991F0694A1F70590079428F4E70E19
:1055C000F81E491F561FC11D770F881F991F661FA0
:1055D0000694A1F70590079428F4F80E491F561F6A
:1055E000C71FD11D880F991F661F771F0694A1F74B
:1055F0000590079420F4490F561FC71FD81F990F15
:10560000661F771F881F0694A9F78491109517705D
:1056100041F0D695C79557954795F794E7941A9515
:10562000C1F7E1EDFAE06894159015913591659117
:10563000959105907FE27395E118F10A430B560BA3
:10564000C90BD009C0F7E10CF11E431F561FC91F3B
:10565000D01D7EF4703311F48A95E6CFE8940150A2
:1056600030F0080F0AF40027021708F4202F2395C2
:10567000022F7A3328F079E37D932A95E9F710C059
:105680007D932A9589F60694979567953795179592
:105690001794E118F10A430B560BC90BD00998F087
:1056A00023957E9173957A3308F070E37C932013F1
:1056B000B8F77E9170617D9330F0839571E37D93AF
:1056C00070E32A95E1F71124EF90FF900F911F915D
:1056D000CF91DF91992787FD909508952F923F9262
:1056E0004F925F926F927F928F929F92AF92BF92F2
:1056F000CF92DF92EF92FF920F931F93CF93DF939E
:10570000CDB7DEB7CA1BDB0B0FB6F894DEBF0FBEFA
:10571000CDBF09942A88398848885F846E847D8447
:105720008C849B84AA84B984C884DF80EE80FD8049
:105730000C811B81AA81B981CE0FD11D0FB6F894BF
:10574000DEBF0FBECDBFED0108951BE0C2EDDBE073
:1057500004C0FE010E94E5262296C43DD107C9F788
:04576000F894FFCFEB
:105764000000C8048000A000B0FF5000E803661BDE
:10577400661B01726967687420006C65667420009A
:105784007374726169676874200063616C69627222
:105794006174696E67202D206B65657020796F7563
:1057A4002068616E6420737472616967687420662E
:1057B4006F72203230207365636F6E64730A0070F9
:1057C4006974636820202020202000090043454E8E
:1057D4005445525F4F4646534554203D20202000F7
:1057E4004D41585F414E474C45203D202020004DFF
:1057F400494E5F414E474C45203D202020006361C7
:105804006C6962726174696F6E20646F6E65202DBD
:1058140020796F752063616E2073746172742073D4
:1058240074656572696E672074686520434152200F
:105834002D20454E4A4F59003130207365636F6EF9
:1058440064732077696E646F7720746F207265616A
:1058540064207468652076616C756573000954680A
:10586400726F75746C65202D207370656564203AC1
:10587400200000000000D90FAC0F810F890F9C0F8E
:10588400AB0F00000000DE12D11F4B13BD12311309
:10589400301300000000551ED11FD71DF01DE21D5E
:1058A400331E0D0A006E616E00696E66006F7666C7
:0458B400002E0000C2
:00000001FF
