:100000000C9467050C94F8170C941F180C948F052A
:100010000C948F050C948F050C948F050C948F0510
:100020000C948F050C948F050C948F050C948F0500
:100030000C948F050C948F050C948F050C948F05F0
:100040000C9446180C948F050C94111B0C94431BB4
:100050000C948F050C948F050C948F050C948F05D0
:100060000C94B10F0C948F05084AD73B3BCE016E20
:1000700084BCBFFDC12F3D6C74319ABD56833DDAFF
:100080003D00C77F11BED9E4BB4C3E916BAAAABE0E
:10009000000000803F004649464F206F766572663B
:1000A0006C6F7721002900444D5020496E697469B6
:1000B000616C697A6174696F6E206661696C6564F0
:1000C0002028636F64652000444D50207265616490
:1000D00079212057616974696E6720666F722066A6
:1000E0006972737420696E746572727570742E2EE5
:1000F0002E00456E61626C696E6720696E74657270
:100100007275707420646574656374696F6E2028FD
:1001100041726475696E6F2065787465726E616C8A
:1001200020696E746572727570742030292E2E2EBF
:1001300000456E61626C696E6720444D502E2E2E14
:1001400000496E697469616C697A696E6720444D13
:10015000502E2E2E000A53656E6420616E79206346
:10016000686172616374657220746F20626567698B
:100170006E20444D502070726F6772616D6D696EB4
:100180006720616E642064656D6F3A20004D5055A4
:100190003630353020636F6E6E656374696F6E2024
:1001A0006661696C6564004D5055363035302063AA
:1001B0006F6E6E656374696F6E20737563636573CC
:1001C0007366756C0054657374696E672064657638
:1001D00069636520636F6E6E656374696F6E732EFD
:1001E0002E2E00496E697469616C697A696E6720A8
:1001F00049324320646576696365732E2E2E0001B3
:10020000B202FFFF0190040923A135016A02060032
:1002100001600800000000000000000060044000D1
:100220000000016202000000600400400000037B47
:10023000034CCD6C03AB0336567600680402CB4703
:10024000A202180400058BC1010C04000000000389
:100250007F060CC92C979797038903264666006C86
:1002600002200002400400000000024404000000DC
:100270000002480400000000024C040000000002DC
:100280005004000000000254040000000002580462
:1002900000000000025C040000000002BC0400003A
:1002A000000001EC0400004000037F060CC92C97FD
:1002B00097970402030D355D040904872D353D0031
:1002C000A3010000000001078601FE074105F1209F
:1002D000283038077E01300746019A074704F12885
:1002E0003038076C04F12830380216020002FB0097
:1002F000003E000B00360001000200030000006514
:100300000054FFEF0000FA80000B1282000100028F
:1003100000000000000000000000000000000028B5
:100320000000FFFF4581FFFFFA720000000000009F
:1003300003E80000000100017FFFFFFE8001001BB9
:100340000000000000000000000000000000003E6F
:1003500003304000000002CAE3093E800000200094
:10036000000000000000400000006000000041FFAD
:10037000000000000B2A0000165500002182FD87B6
:100380002650FD800000001F0000000580000000D6
:100390000000000100000002000000030000400017
:1003A00000000000046F0002653200005EC04000E3
:1003B0000000000000000000000000000000FB8CB6
:1003C0006F5DFD5D08D9007C733B006C12CC320080
:1003D000139D3200D0D632000800400001F4FFE641
:1003E0008079020000000000D0D600002710FB003A
:1003F00000004000000000000000000000000000BD
:1004000000010000000000000100010000000000E9
:10041000FA36FFBC308E0005FBF0FFD95BC8FFD079
:100420009ABE000010A9FFF41EB200CEBBF7000078
:10043000000100000004000200020200000CFFC2E4
:1004400080000001800000CF80004000000000001C
:100450000001000000000000060000000014000081
:10046000000000000000000000000000000000008C
:10047000000000000000000000000000000000007C
:10048000000000000000000000000000000000006C
:100490000000033F68B6793528BCC67ED16C800069
:1004A0000000400000000000B26A000000000000F0
:1004B00000000000000000003FF0000000300000DD
:1004C000000000000000000000000000000000002C
:1004D000000000000000000000000000000000001C
:1004E000254D002F706D000005AE000C02D00000FD
:1004F000000000650054FFEF000000000000000055
:1005000001000044000000000C0000000100000099
:1005100000000065000000540000FFEF0000000034
:10052000000000000000000000000000000040008B
:10053000000000000000000000000000000040007B
:1005400000000000000000000000000000000000AB
:100550000001000000020000000000000000000098
:10056000000000000000000000000000000000008B
:100570000000000000000000000000000000001B60
:10058000000000000000000000000000000000006B
:10059000000000000000000000000000000000005B
:1005A0000000000000000000000040000000001BF0
:1005B000000000000000000000000000000000003B
:1005C000000000000000000000000000000000002B
:1005D000000000000000000000000000000000001B
:1005E0000000000000000000000000000000D8DC57
:1005F000BAA2F1DEB2B8B4A88191F74A907F916AAD
:10060000F3F9DBA8F9B0BAA080F2CE81F3C2F1C150
:10061000F2C3F3CCA2B280F1C6D880BAA7DFDFDF85
:10062000F2A7C3CBC5B6F087A2942448703C95408E
:100630006834589B78A2F183922D557DD8B1B4B817
:10064000A1D09180F270F370F27C80A8F101B09893
:1006500087D943D886C988BAA1F20EB89780F1A984
:10066000DFDFDFAADFDFDFF2AAC5CDC7A90CC92C07
:1006700097979797F1A989264666B0B4BA80ACDE01
:10068000F2CAF1B28C02A9B69800890E161EB8A95A
:10069000B4992C547CB08AA896365676F1B9AFB48A
:1006A000B083C0B8A89711B18F98B9AFF0240844AF
:1006B000106418F1A329557DAF83B593AFF00028DE
:1006C00050F1A3869F61A6DADEDFD9FAA38696DB16
:1006D00031A6D9F8DFBAA68FC2C5C7B28CC1B8A2FD
:1006E000DFDFDFA3DFDFDFD8D8F1B8A8B286B498A8
:1006F0000D355DB8AA98B0872D353DB2B6BAAF8C2E
:1007000096198F9FA70E161EB49AB8AA872C547CF0
:10071000B9A3DEDFDFA3B180F2C4CDC9F1B8A9B4BB
:1007200099830D355D89B9A32D557DB593A30E161B
:100730001EA92C547CB8B4B0F19783A81184A509E4
:1007400098A383F0DA240844106418D8F1A5295539
:100750007DA58595021A2E3A565A4048F9F3A3D939
:10076000F8F098832408441064189782A8F111F0D7
:1007700098A2240844106418DAF3DED883A5940103
:10078000D9A302F1A2C3C5C7D8F18492A24DDA2A37
:10079000D84869D92AD86855DA32D85071D932D8B0
:1007A000705DDA3AD85879D93AD87893A34DDA2AD5
:1007B000D84869D92AD86855DA32D85071D932D890
:1007C000705DDA3AD85879D93AD878A88A9AF02858
:1007D00050789EF38818F19F1D98A8D908D8C89F13
:1007E000129EF315A8DA1210D8F1AFC8978734B566
:1007F000B994A421F3D922D8F22DF3D92AD8F2350D
:10080000F3D932D881A4606061D961D86C6869D9A4
:1008100069D8747071D971D8B1A384193D5DA3836F
:100820001A3E5E931030811011B8B0AF8F94F2DA97
:100830003ED8B49AA88729DAF8D8879A35DAF8D852
:10084000879A3DDAF8D8B1B9A49885022E56A581C9
:10085000000C14A397B08AF12DD928D84DD948D8C7
:100860006DD968D8B1840DDA0ED8A32983DA2C0E9D
:10087000D8A3844983DA2C4C0ED8B8B0A88A9AF54C
:1008800020AADADFD8A840AAD0DADED8A860AADA8F
:10089000D0DFD8F19786A8319B069907AB972888B7
:1008A0009BF00C201440B8B0B4A88C9CF0042851E4
:1008B000791D301438B282ABD0982C505078789B88
:1008C000F11AB0F08A9CA82951798B2951798A2490
:1008D00070598B2058718A4469388B3940688A6412
:1008E00048318B304960A588200971584468113916
:1008F00064493019F1AC002C547CF08CA8042850C9
:1009000078F1889726A85998AC8C02264666F0891B
:100910009CA8295179247059446938644831A988C0
:1009200009205970AB11384069A8193148608CA86A
:100930003C415C207C00F187981986A86E767EA9E0
:1009400099882D557D9EB9A38A228A6E8A568A5E21
:100950009FB183062646660E2E4E6E9DB8AD002CC6
:10096000547CF2B18CB499B9A32D557D8191AC38EA
:10097000AD3AB58391AC2DD928D84DD948D86DD989
:1009800068D88C9DAE29D904AED851D904AED87997
:10099000D904D881F39DAD008DAE1981ADD901D8B0
:1009A000F2AEDA26D88E912983A7D9ADADADADF3DD
:1009B0002AD8D8F1B0AC89913E5E76F3AC2E2EF1F8
:1009C000B18C5A9CAC2C2828289CAC3018A8988153
:1009D00028343C9724A728343C9C24F2B089AC915D
:1009E0002C4C6C8A9B2DD9D8D851D9D8D879D9D844
:1009F000D8F19E88A331DAD8D8912DD928D84DD9ED
:100A000048D86DD968D8B18393353D8025DAD8D8D8
:100A10008569DAD8D8B49381A328343CF3AB8BF83A
:100A2000A391B609B4D9ABDEFAB0879CB9A3DDF1C6
:100A3000A3A3A3A395F1A3A3A39DF1A3A3A3A3F2AF
:100A4000A3B49080F2A3A3A3A3A3A3A3A3A3A3B23D
:100A5000A3A3A3A3A3A3B087B599F1A3A3A398F1DC
:100A6000A3A3A3A397A3A3A3A3F39BA3A3DCB9A7C7
:100A7000F1262626D8D8FF00000008000201000059
:100A80000304070000000000000000010204081039
:100A900020408001020408102001020408102004F4
:100AA0000404040404040402020202020203030315
:100AB00003030300000000250028002B00000000B5
:100AC00000240027002A0000680CC70E731B1124A5
:100AD0001FBECFEFD8E0DEBFCDBF11E0A0E0B1E098
:100AE000E4ECF6E402C005900D92AC3BB107D9F7F7
:100AF00023E0ACEBB1E001C01D92A83EB207E1F7E4
:100B00001AE0CEECDAE004C02297FE010E941E211A
:100B1000C83CD107C9F70E94B71B0C9460230C9402
:100B2000000081E08093BC0108958F929F92AF9264
:100B3000BF92CF92EF920F931F93CF93DF93CDB7D6
:100B4000DEB7C059D1090FB6F894DEBF0FBECDBFD6
:100B50005C010E9497136EE170E080E090E00E94DB
:100B6000BF1860E0C5010E949E1321E041E060E1F2
:100B7000C5010E94CC1466E0C5010E94D714C501CE
:100B80000E94DD1420E040E060E0C5010E94CC142A
:100B9000C5010E941314C5010E943114182FC5010C
:100BA0000E945814882EC5010E947F14982E4FE78A
:100BB00060E0C5010E94571360E0C5010E948213E6
:100BC00048E660E0C5010E945713C5010E949013DA
:100BD00064E170E080E090E00E94BF18EE24E394AE
:100BE00000E020E049E857E06EEE72E0C5010E94A7
:100BF0003A16882309F40EC240EC50E06EE272E02F
:100C0000C5010E940217882309F406C263E0C501EA
:100C10000E94A51362E1C5010E94631364E0C5014F
:100C20000E940D1361E0C5010E94131363E0C5012A
:100C30000E941E1363E0C5010E94291363E0C501F1
:100C40000E94051760E0C5010E940B1760E0C50116
:100C50000E942A14612FC5010E944D14682DC50100
:100C60000E947414692DC5010E949B14812C912C43
:100C7000F401E150FE4FE491A1E8B0E0AC0FBD1FDC
:100C8000A80DB11DEC9381E0880D9FEF891A990A98
:100C9000E3E0E81568F7CD57DF4F4881C358D040EF
:100CA00050E09A012E5F3F4F90E02817390704F774
:100CB000C12CEE24E394CE57DF4F0881C258D040B8
:100CC000CF57DF4F2881C158D04061E870E06C0FEA
:100CD0007D1F6D5F7F4FC5010E94591560E0F401D3
:100CE000E150FE4FE491A1E8B0E0AC0FBD1FA60FAC
:100CF000B11DEC936F5FFFEF8F1A9F0A643078F39A
:100D0000CD57DF4F4881C358D04050E09A012E5F45
:100D10003F4F862F90E0281739070CF7C12CEE249F
:100D2000E394CE57DF4F0881C258D040CF57DF4FF2
:100D30002881C158D04061E870E06C0F7D1F6D5F65
:100D40007F4FC5010E945915C5010E948913C50135
:100D50000E94C413482FBE016F5F7F4FC5010E94E0
:100D6000E01362E0C5010E943F136CE9C5010E94D7
:100D70004B1360E5C5010E94451360E0C5010E9468
:100D80005113C5010E94891361E0C5010E947B13C4
:100D900061E0C5010E94BE14C5010E94C51460E057
:100DA000F401E150FE4FE491A1E8B0E0AC0FBD1FAB
:100DB000A60FB11DEC936F5F8FEF881A980A64300D
:100DC00078F3CD57DF4F4881C358D04050E09A01A7
:100DD0002E5F3F4F862F90E0281739070CF7C12C64
:100DE000EE24E394CE57DF4F0881C258D040CF574E
:100DF000DF4F2881C158D04061E870E06C0F7D1F43
:100E00006D5F7F4FC5010E94591560E0F401E1500C
:100E1000FE4FE491A1E8B0E0AC0FBD1FA60FB11DDD
:100E2000EC936F5F9FEF891A990A643078F3CD577E
:100E3000DF4F4881C358D04050E09A012E5F3F4FAA
:100E4000862F90E0281739070CF7C12CEE24E39485
:100E5000CE57DF4F0881C258D040CF57DF4F28818F
:100E6000C158D04061E870E06C0F7D1F6D5F7F4F0F
:100E7000C5010E94591560E0F401E150FE4FE49174
:100E8000A1E8B0E0AC0FBD1FA60FB11DEC936F5FE2
:100E9000EFEF8E1A9E0A643078F3CD57DF4F48810A
:100EA000C358D04050E09A012E5F3F4F862F90E00C
:100EB000281739070CF7C12CEE24E394CE57DF4FE7
:100EC0000881C258D040CF57DF4F2881C158D04049
:100ED00061E870E06C0F7D1F6D5F7F4FC5010E9460
:100EE0005915C5010E94C41383309105D0F3482FD2
:100EF000BE016F5F7F4FC5010E94E013C5010E94D4
:100F0000691360E0F401E150FE4FE491A1E8B0E024
:100F1000AC0FBD1FA60FB11DEC936F5FFFEF8F1AD3
:100F20009F0A643078F3CD57DF4F4881C358D040D3
:100F300050E09A012E5F3F4F862F90E02817390727
:100F40000CF7CE57DF4F0881C258D040CF57DF4F44
:100F50002881C158D04061E870E06C0F7D1F6D5F43
:100F60007F4FC5010E94EF14C5010E94C413833056
:100F70009105D0F3482FBE016F5F7F4FC5010E94DE
:100F8000E013C5010E946913F401E150FE4F60E0D7
:100F90008491A1E8B0E0AC0FBD1FA60FB11D8C93EA
:100FA0006F5F643010F43196F3CFCD57DF4F488137
:100FB000C358D04050E09A012E5F3F4F862F90E0FB
:100FC0002817390784F761E870E06C0F7D1F6D5FAB
:100FD0007F4FC12CEE24E394CE57DF4F0881C258D7
:100FE000D040CF57DF4F2881C158D040C5010E9463
:100FF000591560E0C5010E94BE148AE290E0F50137
:1010000093838283C5010E948913C5010E946913DD
:1010100080E003C081E001C082E0C057DF4F0FB61F
:10102000F894DEBF0FBECDBFDF91CF911F910F911E
:10103000EF90CF90BF90AF909F908F900895CF93F7
:10104000DF93DB01FA01309719F4EC01E881F981B3
:10105000808190E0982F88272181820F911D119621
:101060009C938E93848190E0982F88272581820F0E
:10107000911D13969C938E931297808590E0982FE4
:1010800088272185820F911D15969C938E93149726
:10109000848590E0982F88272585820F911D1796CB
:1010A0009C938E93169780E0DF91CF910895FF92E5
:1010B0000F931F93CF93DF93CDB7DEB728970FB66B
:1010C000F894DEBF0FBECDBF8B01BE016F5F7F4FB7
:1010D0000E941F08F82E81114CC069817A818827EF
:1010E00077FD8095982F0E94591F20E030E040E85E
:1010F00058E30E943920F8016083718382839383CF
:101100006B817C81882777FD8095982F0E94591FDD
:1011100020E030E040E858E30E943920F801648381
:101120007583868397836D817E81882777FD80957F
:10113000982F0E94591F20E030E040E858E30E94B9
:101140003920F80160877187828793876F8178855E
:10115000882777FD8095982F0E94591F20E030E066
:1011600040E858E30E943920F80164877587868734
:1011700097878F2D28960FB6F894DEBF0FBECDBF90
:10118000DF91CF911F910F91FF9008954F925F9241
:101190006F927F928F929F92AF92BF92CF92DF9287
:1011A000EF92FF920F931F93CF93DF93CDB7DEB7EC
:1011B00028970FB6F894DEBF0FBECDBF8B01DA01C2
:1011C0001496CD90DD90ED90FC9017971C964D9065
:1011D0005D906D907C901F978D909D90AD90BC9090
:1011E000139718968D919D910D90BC91A02D898398
:1011F0009A83AB83BC83A3019201C701B6010E940D
:1012000039206D837E838F83988729813A814B8132
:101210005C81C501B4010E9439209B01AC016D8144
:101220007E818F8198850E94F31D9B01AC010E94F5
:10123000F41DF8016083718382839383A701960173
:10124000C501B4010E9439206D837E838F83988706
:10125000A301920169817A818B819C810E9439204E
:101260009B01AC016D817E818F8198850E94F41D68
:101270009B01AC010E94F41DD80114966D937D93DF
:101280008D939C931797A5019401C501B4010E9409
:1012900039204B015C01A7019601C701B6010E94EC
:1012A00039209B01AC01C501B4010E94F31D6B0103
:1012B0007C0129813A814B815C81CA01B9010E947C
:1012C00039209B01AC01C701B6010E94F31D6B01DF
:1012D0007C01A3019201C301B2010E9439209B014C
:1012E000AC01C701B6010E94F41DF8016087718747
:1012F0008287938780E028960FB6F894DEBF0FBEF2
:10130000CDBFDF91CF911F910F91FF90EF90DF90B4
:10131000CF90BF90AF909F908F907F906F905F9095
:101320004F9008952F923F924F925F926F927F92CB
:101330008F929F92AF92BF92CF92DF92EF92FF92E5
:101340000F931F93CF93DF9300D000D000D0CDB781
:10135000DEB71B018A013E832D83FA01C080D18054
:10136000E280F380A7019601C701B6010E94F41D37
:1013700069837A838B839C83F80184809580A6801F
:10138000B780A5019401C501B4010E94F41D2B0191
:101390003C01A701960169817A818B819C810E9421
:1013A00039206B017C01A5019401C301B2010E94A7
:1013B00039209B01AC01C701B6010E94F41D20E059
:1013C00030E040E85FE30E94F31D6B017C01F8010F
:1013D0002085318542855385C301B2010E943920A1
:1013E0002B013C01F80124853585468557856981A7
:1013F0007A818B819C810E9439209B01AC01C301C1
:10140000B2010E94F31DA70196010E94671EF1011F
:101410006083718382839383ED81FE816481758112
:1014200086819781C084D184E284F3849B01AC01DE
:101430000E9439204B015C01A7019601C701B6014A
:101440000E9439209B01AC01C501B4010E94F41D2A
:101450000E94A0209B01AC01ED81FE816081718121
:10146000828193810E94BE1E0E94921EF1016483BC
:10147000758386839783ED81FE816081718182818E
:101480009381C084D184E284F3849B01AC010E94E7
:1014900039204B015C01A7019601C701B6010E94EA
:1014A00039209B01AC01C501B4010E94F41D0E94CA
:1014B000A0209B01AC01ED81FE8164817581868154
:1014C00097810E94BE1E0E94921EF1016087718763
:1014D0008287938780E026960FB6F894DEBF0FBE12
:1014E000CDBFDF91CF911F910F91FF90EF90DF90D3
:1014F000CF90BF90AF909F908F907F906F905F90B4
:101500004F903F902F900895CF92DF92EF92FF92ED
:101510000F931F930E949018672B682B692B41F43F
:101520000E949018623071058105910508F478C019
:1015300087E093E00E94111760933F02709340028E
:101540008093410290934202009143021091440221
:101550002091450230914602601771078207930778
:1015600040F4609343027093440280934502909349
:1015700046020091430210914402209145023091AD
:1015800046026B017C01C01AD10AE20AF30A9701F4
:1015900086010A3F11052105310508F441C0609319
:1015A000430270934402809345029093460287E081
:1015B00093E00E943B176CE071E0809138039091BA
:1015C00039030E94271C64E171E0809138039091F7
:1015D00039030E94271C0E949018AB01BC012AE02D
:1015E00030E080913803909139030E94DF1C66E15E
:1015F00071E080913803909139030E94271C65E0C7
:1016000070E080E090E00E94BF186AE070E080E047
:1016100090E00E94BF1861E087E093E00E947E178F
:1016200080912B02882309F44CC18091250290916E
:10163000260220912702309128024091BC014111DD
:1016400003C082179307C8F31092BC018CE292E0AA
:101650000E94691380932A028CE292E00E94C413D4
:10166000909326028093250220912A0224FD03C034
:101670008115944081F48CE292E00E94891366E91E
:1016800070E087E493E01F910F91FF90EF90DF905F
:10169000CF900C94341C21FF14C14091270250912B
:1016A000280280912502909126028417950748F41C
:1016B0008CE292E00E94C41390932602809325024C
:1016C000ECCF65EE71E08CE292E00E94E013809135
:1016D0002502909126022091270230912802821B38
:1016E000930B909326028093250245EE51E065ED21
:1016F00071E08CE292E00E94570845ED51E069EC00
:1017000071E08CE292E00E94C60829EC31E045EDE0
:1017100051E06DEB71E08CE292E00E9492096FE182
:1017200071E087E493E00E94271C20E030E044E36E
:1017300053E46091BD017091BE018091BF01909111
:10174000C0010E9439202BED3FE049E450E40E94A3
:10175000BE1EAB01BC0122E030E087E493E00E94B2
:10176000DE1D62E271E087E493E00E94271C20E026
:1017700030E044E353E46091C1017091C201809173
:10178000C3019091C4010E9439202BED3FE049E450
:1017900050E40E94BE1EAB01BC0122E030E087E4B1
:1017A00093E00E94DE1D62E271E087E493E00E9414
:1017B000271C20E030E044E353E46091C5017091C0
:1017C000C6018091C7019091C8010E9439202BED7C
:1017D0003FE049E450E40E94BE1EAB01BC0122E0A0
:1017E00030E087E493E00E94E01D20E030E044E335
:1017F00053E46091C1017091C2018091C301909145
:10180000C4010E9439202BED3FE049E450E40E94DE
:10181000BE1E20E030E04CE052E40E94BA1E87FF7A
:1018200002C061E001C060E086E00E94961920E0FD
:1018300030E044E353E46091C5017091C6018091AA
:10184000C7019091C8010E9439202BED3FE049E487
:1018500050E40E94BE1E20E030E040EA51E40E94C5
:101860002E20181614F461E001C060E085E00E94AB
:10187000961920E030E044E353E46091C501709193
:10188000C6018091C7019091C8010E9439202BEDBB
:101890003FE049E450E40E94BE1E20E030E040EA10
:1018A00051EC0E94BA1E87FF02C061E001C060E0F7
:1018B00087E01F910F91FF90EF90DF90CF900C94F5
:1018C00096191F910F91FF90EF90DF90CF900895A0
:1018D0008CE292E00E94091380E090E0A0E8BFE370
:1018E0008093D5019093D601A093D701B093D801EE
:1018F0001092D9011092DA011092DB011092DC01F2
:101900001092DD011092DE011092DF011092E001D1
:101910001092E1011092E2011092E3011092E401B1
:101920001092C9011092CA011092CB011092CC0101
:101930001092CD011092CE011092CF011092D001E1
:101940001092D1011092D2011092D3011092D401C1
:10195000089540ED57E060E070E087E093E00E947A
:101960003E1720E032EC41E050E067E473E087E0AE
:1019700093E00E94511787E093E00E943B1764E2D6
:1019800071E080913803909139030E94271C6AE02E
:1019900070E080E090E00E94BF1841E060E087E0E6
:1019A00093E00E94BC1787E492E00E94390E88E120
:1019B0008093B80026E040E052EC61E070E087E4FC
:1019C00093E00E94AF1A63EE71E087E493E00E9417
:1019D000341C8CE292E00E94B01365EC71E087E465
:1019E00093E00E94341C8CE292E00E940B14882346
:1019F00019F067EA71E002C06DE871E087E493E0F6
:101A00000E94341C65E571E087E493E00E94341C79
:101A100087E493E00E94CC19892B31F087E493E0AE
:101A20000E94E519892BA1F787E493E00E94CC1965
:101A3000892BD1F387E493E00E94CC19892B31F0F4
:101A400087E493E00E94E519892BA1F761E471E036
:101A500087E493E00E94341C8CE292E00E9495059A
:101A6000809329026CED70E08CE292E00E94AC144D
:101A70006CE470E08CE292E00E94B2146BEA7FEFBB
:101A80008CE292E00E94B8146CEF76E08CE292E077
:101A90000E94A61480912902811130C061E371E097
:101AA00087E493E00E94341C61E08CE292E00E94A3
:101AB000BE1462EF70E087E493E00E94341C43E0C0
:101AC00050E061E975E080E00E94D8178CE292E076
:101AD0000E94691380932A0268EC70E087E493E027
:101AE0000E94341C81E080932B0280912E02909101
:101AF0002F02909328028093270214C067EA70E0B7
:101B000087E493E00E94041C4AE050E060912902BF
:101B100087E493E00E94EC1C65EA70E087E493E0C0
:101B20000E94341C61E08DE00E945D1961E085E057
:101B30000E945D1961E086E00E945D1961E087E026
:101B40000C945D198091770290E020917802821BBD
:101B5000910908952091780280917702281750F416
:101B6000E22FF0E0E758FD4F808190E02F5F209357
:101B7000780208958FEF9FEF0895E09178028091A9
:101B80007702E81730F4F0E0E758FD4F808190E0ED
:101B900008958FEF9FEF08950895CF92DF92EF920F
:101BA000FF920F931F93CF93DF937C01CB018A01A8
:101BB00020915302222389F0EB016B01C40ED51E44
:101BC000CC15DD0569F06991D701ED91FC9101908B
:101BD000F081E02DC7010995F3CF642F0E94880F93
:101BE000C801DF91CF911F910F91FF90EF90DF908F
:101BF000CF900895CF93DF931F92CDB7DEB769835F
:101C0000209153022223D1F020915402203240F03F
:101C100021E030E0FC013383228380E090E015C0B6
:101C200080915502E82FF0E0EA5AFD4F99819083A8
:101C30008F5F809355028093540205C061E0CE010E
:101C400001960E94880F81E090E00F90DF91CF9184
:101C50000895FC011382128248EE53E060E070E0C8
:101C600044835583668377838AE391E091838083FD
:101C700008951092780210927702109255021092F5
:101C800054020C94CB0E81E0809353026093760251
:101C9000109255021092540208950F93062F21E0DE
:101CA0004091540266E572E0809176020E94310F05
:101CB0001092550210925402109253020F910895FF
:101CC0008F929F92AF92BF92CF92DF92EF92FF924C
:101CD0000F931F93CF93DF93EC01F62ED42E480180
:101CE0005901EE2019F10E94430E1E2D143008F008
:101CF00013E01150B8F0E881F98128E0129FB0019B
:101D00001124A501940104C0569547953795279550
:101D10006A95D2F7CA01B9010190F081E02DCE0198
:101D20000995E7CF60E0CE010E944D0E4D2D413266
:101D300008F040E22C2D69E772E08F2D0E94E90E39
:101D40001092780280937702DF91CF911F910F91CB
:101D5000FF90EF90DF90CF90BF90AF909F908F90CB
:101D60000895CF92EF920F931F93C22EE12C00E0C3
:101D700010E098010E94600E1F910F91EF90CF909C
:101D8000089521E00C94B10E61E00C944D0E87E4AF
:101D900092E00C94290E1092060381E080930403D4
:101DA0001092030361E082E10E94961961E083E1F1
:101DB0000E949619E9EBF0E080818E7F808380811C
:101DC0008D7F808388E48093B80085E48093BC0095
:101DD0000895413208F043C0909106039111FCCF61
:101DE00091E090930603209304032FEF2093990230
:101DF0001092DE02240F2093DD0290930503909150
:101E00000503880F892B809305038091030381309C
:101E100061F410920303809105038093BB008091CD
:101E2000BC0083FDF8CF85EC01C085EE8093BC003B
:101E3000809106038130E1F38091DE02841710F473
:101E40004091DE022FED32E0FB01D9018A2F821B87
:101E5000841718F48D918193F9CF842F089580E031
:101E600008950F93413208F04AC0909106039111F2
:101E7000FCCF92E090930603009304039FEF9093AE
:101E800099021092DE024093DD02FB016FED72E0D9
:101E9000DB019A2F961B941718F491919D93F9CF1B
:101EA0001092050390910503880F892B80930503F9
:101EB00080910303813061F4109203038091050344
:101EC0008093BB008091BC0083FDF8CF85EC01C0FE
:101ED00085EE8093BC00222321F08091060382309E
:101EE000E1F3809199028F3F61F0809199028032F5
:101EF00051F080919902803341F483E007C081E082
:101F000005C080E003C082E001C084E00F91089525
:101F1000613298F420910603243089F46093BB0267
:101F2000FC018DEB92E0DC012A2F281B261718F408
:101F300021912D93F9CF80E0089581E0089582E00A
:101F4000089585ED8093BC008091BC0084FDFCCF9A
:101F500010920603089585EC8093BC00109206034E
:101F600008951F920F920FB60F9211242F933F9353
:101F70004F935F936F937F938F939F93AF93BF9391
:101F8000EF93FF938091B900887F803609F49EC05B
:101F900078F5883209F45DC090F4803109F456C0B8
:101FA00038F4882309F4F5C0883009F44FC0F5C02F
:101FB000883109F44EC0803209F45FC0EEC080342D
:101FC00009F46AC058F4803309F457C0883309F023
:101FD000E4C0809399020E94AB0FDFC0803509F402
:101FE0004FC0883509F45DC0883409F0D6C0D3C02D
:101FF000883909F4C4C0A8F4883709F467C038F4F4
:10200000883609F463C0803709F460C0C6C08838D8
:1020100009F4B5C0803909F45FC0803809F0BDC04B
:102020005BC0803B09F483C038F4803A09F466C091
:10203000883A09F47CC0B1C0803C09F4A4C0883C53
:1020400009F4A1C0883B09F487C0A7C080910503AB
:1020500010C09091DE028091DD02981770F5E0913A
:10206000DE0281E08E0F8093DE02F0E0E152FD4F50
:1020700080818093BB0085EC83C0809399028BC0E4
:10208000E091DE0281E08E0F8093DE028091BB0042
:10209000F0E0E152FD4F80839091DE028091DD02FD
:1020A0006BC0E091DE0281E08E0F8093DE028091B2
:1020B000BB00F0E0E152FD4F808380910403811169
:1020C0006AC081E08093030384EA5EC083E080936A
:1020D000060310929A02CFCF80919A02803208F0C4
:1020E0004EC0E0919A0281E08E0F80939A02809117
:1020F000BB00F0E0E556FD4F8083BDCF0E94AB0FE3
:1021000080919A02803230F4E0919A02F0E0E55634
:10211000FD4F108260919A0270E0E091FF02F09111
:1021200000038BE992E0099510929A0236C084E090
:10213000809306031092BC021092BB02E09101034F
:10214000F091020309958091BB02811105C081E0E5
:102150008093BB021092BD02E091BC0281E08E0F21
:102160008093BC02F0E0E354FD4F80818093BB007C
:102170009091BC028091BB02981708F47CCF85E84F
:102180008093BC000AC085EC8093BC0010920603CB
:1021900004C0109299020E94A10FFF91EF91BF918C
:1021A000AF919F918F917F916F915F914F913F91EF
:1021B0002F910F900FBE0F901F901895EF92FF92E6
:1021C0000F931F93CF93DF9300D0CDB7DEB7062FC9
:1021D000142F682F87E492E029833A830E94430EEC
:1021E000602F87E492E00E94FA0D2981022FE22EEF
:1021F0003A81F32E8E2D801B811740F4F7016191F7
:102200007F0187E492E00E94FA0DF4CF87E492E028
:102210000E94C40E91E0811190E0892F0F900F90E1
:10222000DF91CF911F910F91FF90EF900895CF9381
:10223000DF931F92CDB7DEB749839E012F5F3F4FDB
:1022400041E00E94DE100F90DF91CF910895DF9260
:10225000EF92FF920F931F93CF93DF93C62F042F1C
:102260007901682F87E492E00E94430E6C2F87E487
:1022700092E00E94FA0D10E0000F111FD12CCD2D1D
:10228000D0E0C017D1078CF4CC0FDD1FCE0DDF1DC1
:10229000698187E492E00E94FA0D688187E492E008
:1022A0000E94FA0DD394D394EACF87E492E00E947F
:1022B000C40E91E0811190E0892FDF91CF911F91A1
:1022C0000F91FF90EF90DF900895CF93DF9300D0B0
:1022D000CDB7DEB75A8349839E012F5F3F4F41E060
:1022E0000E9427110F900F90DF91CF9108953F9298
:1022F0004F925F926F927F928F929F92AF92BF9216
:10230000CF92DF92EF92FF920F931F93CF93DF93C1
:1023100000D000D000D0CDB7DEB7682E562E742E78
:102320003A8329830E9490186B017C01312C412C47
:10233000872D90E09C838B834801A12CB12C37140E
:10234000B0F5662D87E492E00E94430E652D87E488
:1023500092E00E94FA0D87E492E00E94C40E662D7E
:1023600087E492E00E94430E4B815C81431951093E
:102370004132510514F040E250E0662D87E492E0CE
:102380000E94C10E87E492E00E94A20D892B59F1B0
:102390000115110579F10E9490186C197D098E09BB
:1023A0009F09681579058A059B0520F11CC0011558
:1023B000110589F10E9490186C197D098E099F09F9
:1023C00020E030E0601771078207930720F1872D26
:1023D00090E0242D332727FD309528173907DCF4AA
:1023E00044244A9418C0872D90E2971508F480E29F
:1023F000380EA5CFE981FA81E40DF11D47FCFA956D
:10240000FE83ED8387E492E00E94AA0DED81FE81B8
:1024100080834394B7CF842D26960FB6F894DEBF01
:102420000FBECDBFDF91CF911F910F91FF90EF9025
:10243000DF90CF90BF90AF909F908F907F906F90E4
:102440005F904F903F9008950F931F9389019A01D9
:1024500041E00E9477111F910F910895DF92EF9252
:10246000FF920F931F93CF93DF931F92CDB7DEB7E9
:10247000D42E79019801AE014F5F5F4F0E94241264
:1024800061E070E001C0660FDA94EAF79981962363
:10249000F70190830F90DF91CF911F910F91FF90E3
:1024A000EF90DF900895CF92DF92EF92FF920F931B
:1024B0001F93CF93DF931F92CDB7DEB7C42ED22EDA
:1024C0009701AE014F5F5F4F0E9424128823F1F005
:1024D0004C2D50E04D1951094F5F5F4F61E070E0A6
:1024E00002C0660F771FDA94E2F761507109042E7B
:1024F00001C0660F0A94EAF72981262330E002C062
:10250000359527954A95E2F7F80120830F90DF91E2
:10251000CF911F910F91FF90EF90DF90CF90089592
:10252000EF92FF920F931F93CF93DF931F92CDB73C
:10253000DEB7182F062FF42EE22E209106013091DF
:102540000701AE014F5F5F4F0E942412898121E095
:1025500030E00F2C01C0220F0A94EAF7EE2019F0A8
:10256000482F422B03C0422F409548234983602FB8
:10257000812F0E9417110F90DF91CF911F910F9122
:10258000FF90EF900895DF92EF92FF920F931F93C9
:10259000CF93DF931F92CDB7DEB7F82EE62ED42E61
:1025A000122F2091060130910701AE014F5F5F4F5E
:1025B0000E942412882319F14D2D50E0411B51092E
:1025C0004F5F5F4FE1E0F0E002C0EE0FFF1F1A9592
:1025D000E2F73197042E01C0EE0F0A94EAF701C02A
:1025E000000F4A95EAF74E2F409589814823E02352
:1025F0004E2B49836E2D8F2D0E94171101C080E054
:102600000F90DF91CF911F910F91FF90EF90DF908E
:10261000089528E6FC0120830895462F69E1FC0116
:1026200080810C9417110F93062F23E045E06AE197
:10263000FC0180810E94C3120F9108950F93062F11
:1026400023E042E06AE1FC0180810E94C3120F9105
:1026500008950F93062F22E044E06BE1FC01808196
:102660000E94C3120F9108950F93062F22E044E0B9
:102670006CE1FC0180810E94C3120F910895462FE6
:102680006FE1FC0180810C941711462F60E2FC0180
:1026900080810C941711462F61E2FC0180810C941B
:1026A0001711462F62E2FC0180810C9417116430EF
:1026B00048F4262F220F260F2B5D622FFC0180810C
:1026C0000C9417110895462F68E3FC0180810C9447
:1026D0001711CF93DF93EC01209106013091070190
:1026E000AC014F5F5F4F6AE388810E9424128981A9
:1026F000DF91CF910895262F46E06AE6FC018081A4
:102700000C949012262F45E06AE6FC0180810C941F
:10271000901221E042E06AE6FC0180810C94901264
:1027200021E041E06AE6FC0180810C94901221E0F6
:1027300047E06BE6FC0180810C949012262F46E066
:102740006BE6FC0180810C9490120F93062F23E01E
:1027500042E06BE6FC0180810E94C3120F91089554
:10276000CF93DF93EC0161E00E94A51360E0CE01FE
:102770000E94291360E0CE010E94341360E0CE0174
:10278000DF91CF910C949E130F931F93CF93DF9300
:10279000EC0100910601109107019C012F5F3F4F52
:1027A00042E062E788810E947711898190E0982F4A
:1027B00088272A81822BDF91CF911F910F91089555
:1027C0000F931F939B01009106011091070164E78D
:1027D000FC0180810E9477111F910F910895EF9263
:1027E000FF920F931F93CF93DF93EC01E0900601CC
:1027F000F09007018C010F5F1F4F26E046E065E770
:1028000088810E9453128981DF91CF911F910F918E
:10281000FF90EF9008950E94EF1391E0843309F048
:1028200090E0892F08950F931F93CF93DF93EC01CE
:1028300000910601109107019C012F5F3F4F40E07E
:1028400060E088810E942E128981DF91CF911F91D3
:102850000F910895262F40E060E0FC0180810C94E8
:102860009012EF92FF920F931F93CF93DF93EC019F
:10287000E0900601F09007018C010F5F1F4F26E0EA
:1028800046E060E088810E9453128981DF91CF91F8
:102890001F910F91FF90EF9008950F93062F26E060
:1028A00046E060E0FC0180810E94C3120F91089510
:1028B000EF92FF920F931F93CF93DF93EC01E09081
:1028C0000601F09007018C010F5F1F4F26E046E0E4
:1028D00061E088810E9453128981DF91CF911F911D
:1028E0000F91FF90EF9008950F93062F26E046E09A
:1028F00061E0FC0180810E94C3120F910895EF9264
:10290000FF920F931F93CF93DF93EC01E0900601AA
:10291000F09007018C010F5F1F4F26E046E062E058
:1029200088810E9453128981DF91CF911F910F916D
:10293000FF90EF9008950F93062F26E046E062E0A7
:10294000FC0180810E94C3120F910895AB016AE0DF
:10295000FC0180810C946511AB0163E1FC01808175
:102960000C946511AB0165E1FC0180810C9465114B
:10297000AB0167E1FC0180810C946511262F47E0D3
:102980006AE6FC0180810C94901221E043E06AE643
:10299000FC0180810C9490126F71211160624111D1
:1029A0006064462F6DE6FC0180810C941711462F60
:1029B0006EE6FC0180810C941711CF93DF93EC013C
:1029C0002091060130910701AC014F5F5F4F6FE628
:1029D00088810E9424128981DF91CF9108955F92AE
:1029E0006F927F928F929F92AF92BF92CF92DF921F
:1029F000EF92FF920F931F93CF93DF937C015B01C4
:102A00006A01622E702E20E040E0662D0E94CC14F8
:102A1000602FC7010E94D714C0E0D0E0812C992418
:102A20009394CC15DD05A8F5CE014096C816D906BD
:102A300018F45C2C5C1A02C0A0E15A2E252D30E05F
:102A4000C401871991098217930714F4572C5194E4
:102A5000009106011091070195012C0F3D1F452D96
:102A60006FE6F70180810E947711C50DD11D750CAD
:102A7000CC15DD05B0F6711001C0639420E040E094
:102A8000662DC7010E94CC14672DC7010E94D71480
:102A9000C8CFDF91CF911F910F91FF90EF90DF9002
:102AA000CF90BF90AF909F908F907F906F905F90EE
:102AB00008952F923F924F925F926F927F928F92E2
:102AC0009F92AF92BF92CF92DF92EF92FF920F93BD
:102AD0001F93CF93DF9300D000D01F92CDB7DEB706
:102AE0009D838C837B836A834A01322ED02EE982B8
:102AF00020E040E0632D0E94CC14602F8C819D81EA
:102B00000E94D714E980EE2029F080E190E00E9435
:102B100022215C01CC2031F080E190E00E94222152
:102B2000582E492EE12CF12CE814F90408F07AC053
:102B3000C70140968816990618F4282C2E1802C052
:102B400010E1212E222D30E080E091E08D199109D5
:102B50008217930714F42D2C2194EA81FB81EE0D4A
:102B6000FF1DCC2059F0852DA52DB42D9A2F981B33
:102B7000921530F494919D933196F8CF5E2E4F2E9E
:102B8000252D342D422D6FE6AC81BD818C910E94A4
:102B9000DE10622C712CB981BB2369F1A114B10440
:102BA00051F120E040E0632D8C819D810E94CC1486
:102BB0006D2D8C819D810E94D7140091060110918A
:102BC00007019501422D6FE6EC81FD8180810E9415
:102BD0007711A301B501852D942D0E941323892B14
:102BE00051F0C5010E94BA21CC2049F1852D942DC8
:102BF0000E94BA2124C0E60CF71CD20CE814F90498
:102C000008F092CFD11001C0339420E040E0632D52
:102C10008C819D810E94CC146D2D8C819D810E94A0
:102C2000D71482CFF981FF2319F0C5010E94BA2180
:102C3000CC2039F0852D942D0E94BA2102C080E06D
:102C400001C081E00F900F900F900F900F90DF91D7
:102C5000CF911F910F91FF90EF90DF90CF90BF9099
:102C6000AF909F908F907F906F905F904F903F902C
:102C70002F900895CF92EF920F93CC24C3940E948B
:102C800059150F91EF90CF9008952F923F924F9248
:102C90005F926F927F928F929F92AF92BF92CF92EC
:102CA000DF92EF92FF920F931F93CF93DF9300D0A9
:102CB0001F92CDB7DEB74C017B836A833A01D22ED7
:102CC000222331F088E090E00E942221182FF92E73
:102CD000212C312C2614370408F051C0EA81FB81E5
:102CE000E20DF31DC10103965C01DD20C1F04491AA
:102CF000F10131968A819B81E80FF91F0491F1015E
:102D00003296E80FF91F5490511044C0F4E02F0E92
:102D1000311CEA81FB81EA0DFB1D84910DC04081CD
:102D200001815280EA81FB81E80FF91F51100DC02B
:102D300084E0280E311C80818130D1F442E368E3C5
:102D4000F40180810E941711C5CF1E2FFF2E452C44
:102D5000512CC12CEE24E394242FA201612F7F2D4E
:102D6000C4010E94591512012A0C3B1C8111B2CFDB
:102D7000DD2061F0812F9F2D0E94BA2107C0DD2048
:102D800039F0812F9F2D0E94BA2102C080E024C01B
:102D900081E022C0252C312CF2E0F51548F4B10178
:102DA000812F9F2D49830E944922182FF92E498196
:102DB000812F9F2DA0E0B0E02A813B812A0D3B1D91
:102DC000A215B30520F6F901EA0FFB1F5491FC018F
:102DD0005193CF011196F4CF0F900F900F90DF9188
:102DE000CF911F910F91FF90EF90DF90CF90BF9008
:102DF000AF909F908F907F906F905F904F903F909B
:102E00002F90089521E00C944516462F60E7FC01B1
:102E100080810C941711462F61E7FC0180810C948E
:102E200017110C9490180F931F93CF93DF93EC011D
:102E3000662359F00E94901869837A838B839C8360
:102E4000DF91CF911F910F9108950E9490180981F1
:102E50001A812B813C81601B710B820B930B6233B7
:102E600071058105910530F763E070E080E090E046
:102E70000E94BF18EACF60E00C941317FC0113AA5C
:102E800014AA15AA16AA118212821382148241155D
:102E900051056105710521F0CB01BA010C94BF18F1
:102EA0000895FB01BA01A901DC01D296FC93EE93CF
:102EB000D19726E0CF010C94AF1A1F93CF93DF93E5
:102EC000EC01162F66E471E089A99AA90E94271CDB
:102ED0004AE050E0612F89A99AA90E94EC1C6DE498
:102EE00071E089A99AA90E94271C62E370E080E042
:102EF00090E0DF91CF911F910C94BF181F93CF9357
:102F0000DF93EC01162F8D81882389F189A99AA975
:102F1000DC01ED91FC910480F581E02D0995892B70
:102F2000A9F307C02637310519F12835310509F411
:102F30001D8289A99AA9DC01ED91FC910480F5819B
:102F4000E02D09951816190694F489A99AA9DC01AF
:102F5000ED91FC910680F781E02D09959C013327C6
:102F600023363105F9F6612FCE010E945D1783E605
:102F7000DF91CF911F9108950F931F93CF93DF930C
:102F80001F92CDB7DEB78C01662349F081E0F801CE
:102F9000858360E0C80149830E947E174981F8015A
:102FA00045830F90DF91CF911F910F910895089560
:102FB0008230E8F4E82FF0E0EE0FFF1FE85FFE4FED
:102FC00071836083813041F0809169008C7F842B14
:102FD00080936900E89A089580916900440F551F15
:102FE000440F551F837F842B80936900E99A0895CD
:102FF0001F920F920FB60F9211242F933F934F936E
:103000005F936F937F938F939F93AF93BF93EF9350
:10301000FF93E0910801F09109010995FF91EF916B
:10302000BF91AF919F918F917F916F915F914F91E0
:103030003F912F910F900FBE0F901F9018951F92E8
:103040000F920FB60F9211242F933F934F935F93DC
:103050006F937F938F939F93AF93BF93EF93FF9360
:10306000E0910A01F0910B010995FF91EF91BF9159
:10307000AF919F918F917F916F915F914F913F9110
:103080002F910F900FBE0F901F9018951F920F92C7
:103090000FB60F9211242F933F938F939F93AF936B
:1030A000BF9380913F0390914003A0914103B09161
:1030B000420330913E0323E0230F2D3720F4019685
:1030C000A11DB11D05C026E8230F0296A11DB11D4B
:1030D00020933E0380933F0390934003A0934103CA
:1030E000B09342038091430390914403A091450320
:1030F000B09146030196A11DB11D809343039093A7
:103100004403A0934503B0934603BF91AF919F91B1
:103110008F913F912F910F900FBE0F901F90189598
:103120002FB7F89460913F03709140038091410361
:10313000909142032FBF08953FB7F89480914303C5
:1031400090914403A0914503B091460326B5A89BF6
:1031500005C02F3F19F00196A11DB11D3FBF662785
:10316000782F892F9A2F620F711D811D911D42E0CA
:10317000660F771F881F991F4A95D1F708958F9280
:103180009F92AF92BF92CF92DF92EF92FF926B012C
:103190007C010E949C184B015C01C114D104E10424
:1031A000F104F1F00E94F21D0E949C18681979093F
:1031B0008A099B09683E73408105910570F321E0FF
:1031C000C21AD108E108F10888EE880E83E0981E43
:1031D000A11CB11CC114D104E104F10429F7DDCF15
:1031E000FF90EF90DF90CF90BF90AF909F908F9027
:1031F0000895789484B5826084BD84B5816084BD6F
:1032000085B5826085BD85B5816085BDEEE6F0E05F
:10321000808181608083E1E8F0E0108280818260BB
:103220008083808181608083E0E8F0E0808181603C
:103230008083E1EBF0E0808184608083E0EBF0E06C
:10324000808181608083EAE7F0E080818460808310
:1032500080818260808380818160808380818068BA
:1032600080831092C1000895833081F028F481306A
:1032700099F08230A1F008958730A9F08830B9F034
:103280008430D1F4809180008F7D03C080918000D4
:103290008F7780938000089584B58F7702C084B5BE
:1032A0008F7D84BD08958091B0008F7703C0809199
:1032B000B0008F7D8093B0000895CF93DF9390E0AE
:1032C000FC01E557F54F2491FC01E156F54F84913F
:1032D000882349F190E0880F991FFC01E354F54FD2
:1032E000A591B4918D54954FFC01C591D4919FB790
:1032F000611108C0F8948C91209582238C93888169
:1033000082230AC0623051F4F8948C91322F3095A8
:1033100083238C938881822B888304C0F8948C91BA
:10332000822B8C939FBFDF91CF9108950F931F93B2
:10333000CF93DF931F92CDB7DEB7282F30E0F9018E
:10334000E958F54F8491F901E557F54F1491F901CA
:10335000E156F54F04910023C9F0882321F06983D9
:103360000E9434196981E02FF0E0EE0FFF1FED5449
:10337000F54FA591B4919FB7F8948C91611103C05A
:103380001095812301C0812B8C939FBF0F90DF91FB
:10339000CF911F910F910895FC01818D228D90E0B6
:1033A000805C9F4F821B91098F7399270895FC01C0
:1033B000918D828D981731F0828DE80FF11D858DEA
:1033C00090E008958FEF9FEF0895FC01918D828D1D
:1033D000981761F0828DDF01A80FB11D5D968C9169
:1033E000928D9F5F9F73928F90E008958FEF9FEF74
:1033F000089589E69BE1892B49F080E090E0892BD4
:1034000029F00E94691B81110C9400000895FC01B1
:10341000848DDF01A80FB11DA35ABF4F2C91848D5D
:1034200090E001968F739927848FA689B7892C9392
:10343000A089B1898C9180648C93938D848D98132D
:1034400006C00288F389E02D80818F7D80830895F6
:10345000CF93DF93EC01888D8823C9F0EA89FB893B
:10346000808185FD05C0A889B9898C9186FD0FC032
:103470000FB607FCF5CF808185FFF2CFA889B98907
:103480008C9185FFEDCFCE010E94071AE7CFDF9127
:10349000CF910895CF92DF92FF920F931F93CF9316
:1034A000DF931F92CDB7DEB76C0181E0D60158964D
:1034B0008C9358975B969C915B975C968C915C97EC
:1034C000981307C05096ED91FC915197808185FD2E
:1034D0002EC0F601038D10E00F5F1F4F0F731127F1
:1034E000F02EF601848DF81211C00FB607FCF9CF4B
:1034F000D6015096ED91FC915197808185FFF1CFD7
:10350000C60169830E94071A6981EBCF838DE80F9A
:10351000F11DE35AFF4F6083D6015B960C935B97D6
:103520005296ED91FC915397808180620CC0D60138
:103530005696ED91FC91579760835096ED91FC91D2
:10354000519780818064808381E090E00F90DF91CB
:10355000CF911F910F91FF90DF90CF900895BF9270
:10356000CF92DF92EF92FF92CF93DF93EC016A014B
:103570007B01B22EE889F98982E08083411581EED2
:10358000580761057105A1F060E079E08DE390E0F6
:10359000A70196010E94FA202150310941095109E1
:1035A0005695479537952795211580E1380798F06E
:1035B000E889F989108260E874E88EE190E0A7015B
:1035C00096010E94FA20215031094109510956956E
:1035D000479537952795EC85FD853083EE85FF85EA
:1035E0002083188EEC89FD89B082EA89FB8980816D
:1035F00080618083EA89FB89808188608083EA8991
:10360000FB89808180688083EA89FB8980818F7D46
:103610008083DF91CF91FF90EF90DF90CF90BF90AC
:1036200008951F920F920FB60F9211242F938F932C
:103630009F93EF93FF93E0915703F091580380819C
:10364000E0915D03F0915E0382FD12C09081809154
:1036500060038F5F8F7320916103821751F0E091B7
:103660006003F0E0E95BFC4F958F8093600301C03D
:103670008081FF91EF919F918F912F910F900FBEBD
:103680000F901F9018951F920F920FB60F92112452
:103690002F933F934F935F936F937F938F939F935A
:1036A000AF93BF93EF93FF9387E493E00E94071AD1
:1036B000FF91EF91BF91AF919F918F917F916F910A
:1036C0005F914F913F912F910F900FBE0F901F90E0
:1036D000189587E493E00E94CC1921E0892B09F426
:1036E00020E0822F089510924A031092490388EE39
:1036F00093E0A0E0B0E080934B0390934C03A09341
:103700004D03B0934E0382EA91E090934803809377
:10371000470385EC90E0909354038093530384EC2B
:1037200090E0909356038093550380EC90E0909343
:1037300058038093570381EC90E090935A03809351
:10374000590382EC90E090935C0380935B0386ECDA
:1037500090E090935E0380935D031092600310925B
:1037600061031092620310926303089508950E940A
:10377000F9180E94B61B0E94A90CC9EFD9E10E945A
:10378000840A2097E1F30E94F919F9CFCF92DF92D2
:10379000EF92FF920F931F93CF93DF937C016A0107
:1037A000EB0100E010E00C151D0571F06991D701E7
:1037B000ED91FC910190F081E02DC7010995892BD5
:1037C00019F00F5F1F4FEFCFC801DF91CF911F910D
:1037D0000F91FF90EF90DF90CF90089561157105E4
:1037E00081F0DB010D900020E9F7AD014150510956
:1037F000461B570BDC01ED91FC910280F381E02D1B
:10380000099480E090E00895EF92FF920F931F9348
:10381000CF93DF938C017B01C0E0D0E0F701EC0F88
:10382000FD1F6491662359F0F801A081B181ED91EB
:10383000FC91C8010995892B11F02196EFCFCE019B
:10384000DF91CF911F910F91FF90EF9008950C940D
:10385000EE1BDC01ED91FC910190F081E02D0994CB
:1038600063E571E00C94EE1B0F931F93CF93DF93EE
:10387000EC010E94041C8C01CE010E94301C800FC0
:10388000911FDF91CF911F910F9108958F929F9279
:10389000AF92BF92DF92EF92FF920F931F93CF935D
:1038A000DF93CDB7DEB7A1970FB6F894DEBF0FBE9A
:1038B000CDBF7C01F42FD52ECB0119A2223008F404
:1038C0002AE08E010F5D1F4F822E912CA12CB12C6E
:1038D0006F2F7D2DA50194010E94FA20F22FD32E87
:1038E000CA01015011096A3014F4E0E301C0E7E3B2
:1038F000E60FD801EC93232B242B252B49F7B80195
:10390000C7010E94EE1BA1960FB6F894DEBF0FBE52
:10391000CDBFDF91CF911F910F91FF90EF90DF907E
:10392000BF90AF909F908F900895CF92DF92EF92CB
:10393000FF920F931F93CF93DF93EC016A017B01FA
:103940002115310579F4E881F9810190F081E02DAC
:10395000642FDF91CF911F910F91FF90EF90DF9037
:10396000CF9009942A303105E9F477FF1AC06DE24F
:103970000E94291C8C0144275527BA014C195D0966
:103980006E097F092AE0CE010E94461C800F911F1C
:10399000DF91CF911F910F91FF90EF90DF90CF902B
:1039A00008952AE0B701A601CE01DF91CF911F91C2
:1039B0000F91FF90EF90DF90CF900C94461C211553
:1039C000310541F4DC01ED91FC910190F081E02D95
:1039D000642F09940C94461C9A01462F50E060E035
:1039E00070E00C94DF1C4F925F926F927F928F92E7
:1039F0009F92AF92BF92CF92DF92EF92FF920F937E
:103A00001F93CF93DF93EC016A017B01B22E9A01E1
:103A1000AB01C701B6010E94E120882319F06EEACC
:103A200071E027C026013701E89477F82FEF3FEFC8
:103A30004FE75FE7C301B2010E94E12081110DC091
:103A40002FEF3FEF4FE75FE7C301B2010E94BA1EBD
:103A500018161CF462EB71E00CC02FEF3FEF4FE73C
:103A60005FE4C701B6010E942E201816ACF466EB85
:103A700071E0CE01DF91CF911F910F91FF90EF90F8
:103A8000DF90CF90BF90AF909F908F907F906F907E
:103A90005F904F900C94EE1B2FEF3FEF4FE75FECE2
:103AA000C701B6010E94BA1E87FDE1CF20E030E0D9
:103AB000A901C701B6010E94BA1E87FF0AC06DE2C4
:103AC000CE010E94291C8C01F7FAF094F7F8F094CB
:103AD00002C000E010E0A12C60E070E080E09FE315
:103AE000AB1441F020E030E040E251E40E94BE1E01
:103AF000A394F6CF9B01AC01C701B6010E94F41D4F
:103B00006B017C010E942B1F2B013C010E94571F5F
:103B10009B01AC01C701B6010E94F31D6B017C0142
:103B20002AE0B301A201CE010E94461C080F191F12
:103B3000BB2039F06AEB71E0CE010E94EE1B080F4A
:103B4000191F7B2C772041F120E030E040E251E466
:103B5000C701B6010E9439206B017C010E94261F1B
:103B60004B01AA2497FCA094BA2C2AE030E0B501BE
:103B7000A401CE010E94951C080F191FC501B401B4
:103B80000E94591F9B01AC01C701B6010E94F31DA1
:103B90006B017C017A94D6CFC801DF91CF911F9140
:103BA0000F91FF90EF90DF90CF90BF90AF909F90DC
:103BB0008F907F906F905F904F9008950C94F31CBE
:103BC0000F931F93CF93DF93EC010E94F31C8C01A2
:103BD000CE010E94301C800F911FDF91CF911F9169
:103BE0000F91089508955058BB27AA270ED0FCC105
:103BF000EDD130F0F2D120F031F49F3F11F41EF4FA
:103C0000BDC10EF4E095E7FBB3C1E92FFED180F30F
:103C1000BA17620773078407950718F071F49EF5C9
:103C200016C20EF4E0950B2EBA2FA02D0B01B90190
:103C300090010C01CA01A0011124FF27591B99F022
:103C4000593F50F4503E68F11A16F040A22F232F2E
:103C5000342F4427585FF3CF469537952795A7957E
:103C6000F0405395C9F77EF41F16BA0B620B730B25
:103C7000840BBAF09150A1F0FF0FBB1F661F771F96
:103C8000881FC2F70EC0BA0F621F731F841F48F44B
:103C9000879577956795B795F7959E3F08F0B3CFD1
:103CA0009395880F08F09927EE0F979587950895BB
:103CB0008DD158F080E891E009F49EEF8ED128F084
:103CC00040E851E059F45EEF09C058C1C0C1E92F86
:103CD000E0789BD168F3092E052AC1F32617370730
:103CE0004807590738F00E2E07F8E02569F0E0255F
:103CF000E0640AC0EF6307F8009407FADB01B9013A
:103D00009D01DC01CA01AD01EF9347D06DD10AD00E
:103D10005F91552331F02BED3FE049E450FD49EC34
:103D200063CF0895DF93DD27B92FBF7740E85FE3C6
:103D30001616170648075B0710F4D92F93D19F93E7
:103D40008F937F936F933AD2E8E6F0E01AD14CD18B
:103D50002F913F914F915F9198D1DD2349F0905879
:103D6000A2EA2AED3FE049EC5FE3D0785D274DDF22
:103D7000DF913AC1D9D008F481E008950CD034C164
:103D80002CD140F023D130F021F45F3F19F0F0C086
:103D900051115EC1F3C039D198F39923C9F355236A
:103DA000B1F3951B550BBB27AA276217730784072E
:103DB00038F09F5F5F4F220F331F441FAA1FA9F3E4
:103DC00033D00E2E3AF0E0E830D091505040E695D6
:103DD000001CCAF729D0FE2F27D0660F771F881F37
:103DE000BB1F261737074807AB07B0E809F0BB0B26
:103DF000802DBF01FF2793585F4F2AF09E3F51054A
:103E000068F0B6C025C15F3FECF3983EDCF38695C1
:103E100077956795B795F7959F5FC9F7880F911DBF
:103E20009695879597F90895E1E0660F771F881FAB
:103E3000BB1F621773078407BA0720F0621B730B5E
:103E4000840BBA0BEE1F88F7E095089504D06894B0
:103E5000B111FEC00895E1D088F09F5790F0B92FBE
:103E60009927B751A0F0D1F0660F771F881F991FCF
:103E70001AF0BA95C9F712C0B13081F0E8D0B1E0BC
:103E80000895E5C0672F782F8827B85F39F0B93FCC
:103E9000CCF3869577956795B395D9F73EF49095D1
:103EA0008095709561957F4F8F4F9F4F0895E8944F
:103EB00009C097FB3EF490958095709561957F4F72
:103EC0008F4F9F4F9923A9F0F92F96E9BB27939520
:103ED000F695879577956795B795F111F8CFFAF430
:103EE000BB0F11F460FF1BC06F5F7F4F8F4F9F4F61
:103EF00016C0882311F096E911C0772321F09EE8BF
:103F0000872F762F05C0662371F096E8862F70E024
:103F100060E02AF09A95660F771F881FDAF7880FFE
:103F20009695879597F90895990F0008550FAA0B54
:103F3000E0E8FEEF16161706E807F907C0F01216BC
:103F40001306E407F50798F0621B730B840B950BBF
:103F500039F40A2661F0232B242B252B21F4089514
:103F60000A2609F4A140A6958FEF811D811D0895B1
:103F700097F99F6780E870E060E008959FEF80EC1C
:103F80000895DF93CF931F930F93FF92EF92DF92E9
:103F90007B018C01689405C0DA2EEF0176D0FE011A
:103FA000E894A5912591359145915591AEF3EF0196
:103FB0002CDEFE019701A801DA9479F7DF90EF90EB
:103FC000FF900F911F91CF91DF91089500240A94E3
:103FD0001616170618060906089500240A941216E4
:103FE0001306140605060895092E0394000C11F417
:103FF000882352F0BB0F40F4BF2B11F460FF04C0C4
:104000006F5F7F4F8F4F9F4F089557FD9058440F1C
:10401000551F59F05F3F71F04795880F97FB991F27
:1040200061F09F3F79F087950895121613061406E4
:10403000551FF2CF4695F1DF08C016161706180671
:10404000991FF1CF86957105610508940895E8944C
:10405000BB2766277727CB0197F9089565DF08F41A
:104060008FEF08959B01AC0160E070E080E89FE372
:1040700085CE0BD0B9CFAADF28F0AFDF18F095239B
:1040800009F076CF7BCF1124E3CFBFDFA0F3959F5C
:10409000D1F3950F50E0551F629FF001729FBB272F
:1040A000F00DB11D639FAA27F00DB11DAA1F649FDB
:1040B0006627B00DA11D661F829F2227B00DA11D8E
:1040C000621F739FB00DA11D621F839FA00D611D14
:1040D000221F749F3327A00D611D231F849F600D35
:1040E000211D822F762F6A2F11249F5750408AF06E
:1040F000E1F088234AF0EE0FFF1FBB1F661F771FFA
:10410000881F91505040A9F79E3F510570F030CF65
:104110009FCF5F3FECF3983EDCF3869577956795EC
:10412000B795F795E7959F5FC1F7FE2B880F911D17
:104130009695879597F9089511F40EF41FCF45C011
:104140006CDFD0F39923D9F3CEF39F57550B87FF3C
:104150004AD00024A0E640EA9001805856959795F1
:1041600028F4805C660F771F881F20F0261737071A
:10417000480730F4621B730B840B202931294A2B2A
:10418000A69517940794202531254A2758F7660FDE
:10419000771F881F20F026173707480730F4620B77
:1041A000730B840B200D311D411DA09581F7B901C2
:1041B000842F9158880F9695879508959B01AC019F
:1041C00058CFB2DE880B990B08959F3F31F0915084
:1041D00020F4879577956795B795880F911D9695EB
:1041E000879597F9089591505040660F771F881F63
:1041F000D2F70895A1E21A2EAA1BBB1BFD010DC028
:10420000AA1FBB1FEE1FFF1FA217B307E407F50786
:1042100020F0A21BB30BE40BF50B661F771F881F62
:10422000991F1A9469F760957095809590959B01F8
:10423000AC01BD01CF010895EE0FFF1F0590F49171
:10424000E02D0994CF93DF938230910510F482E042
:1042500090E0E091E603F091E70320E030E0A0E099
:10426000B0E0309739F14081518148175907B8F0D3
:104270004817590771F482819381109729F013969A
:104280009C938E9312972CC09093E7038093E60340
:1042900027C02115310531F04217530718F0A90145
:1042A000DB0101C0EF019A01BD01DF010280F38152
:1042B000E02DD7CF21153105F9F0281B390B24301B
:1042C000310580F48A819B816115710521F0FB0124
:1042D0009383828304C09093E7038093E603FE01F7
:1042E000329644C0FE01E20FF31F81939193225056
:1042F0003109398328833AC02091E4033091E503E2
:10430000232B41F420910201309103013093E50306
:104310002093E40320910001309101012115310522
:1043200041F42DB73EB74091040150910501241B83
:10433000350BE091E403F091E503E217F307A0F4F5
:104340002E1B3F0B2817390778F0AC014E5F5F4FEB
:104350002417350748F04E0F5F1F5093E503409335
:10436000E4038193919302C0E0E0F0E0CF01DF919C
:10437000CF910895CF93DF93009709F487C0FC0194
:10438000329713821282C091E603D091E7032097FF
:1043900081F420813181280F391F8091E4039091AD
:1043A000E5038217930779F5F093E503E093E403BF
:1043B0006DC0DE0120E030E0AE17BF0750F412966A
:1043C0004D915C9113979D014115510509F1DA0159
:1043D000F3CFB383A28340815181840F951F8A1745
:1043E0009B0771F48D919C911197840F951F0296F4
:1043F0009183808312968D919C91139793838283EE
:104400002115310529F4F093E703E093E6033EC05C
:10441000D9011396FC93EE9312974D915D91A40FE1
:10442000B51FEA17FB0779F480819181840F951FEE
:104430000296D90111969C938E9382819381139653
:104440009C938E931297E0E0F0E08A819B81009725
:1044500019F0FE01EC01F9CFCE01029628813981D5
:10446000820F931F2091E4033091E5032817390749
:1044700069F4309729F41092E7031092E60302C022
:1044800013821282D093E503C093E403DF91CF91AE
:104490000895A0E0B0E0EFE4F2E20C942D23EC01EB
:1044A000CB01209719F40E942221B8C0FE01E60F2B
:1044B000F71F9E0122503109E217F30708F4ACC040
:1044C000D9010D911C91119706171707B8F0053007
:1044D000110508F49FC0A801445051094617570719
:1044E00008F498C002501109061B170B0193119391
:1044F0006D937C93CF010E94BA218CC05B01A01AFE
:10450000B10A4E01800E911EA091E603B091E7031F
:10451000612C712C60E070E0109709F449C0A81577
:10452000B905C9F5ED90FC901197670142E0C40E02
:10453000D11CCA14DB0478F147018A189B08640176
:1045400042E0C40ED11C1296BC9012971396AC9107
:10455000B5E0CB16D10440F0B282A3839182808271
:10456000D9018D939C9309C00E5F1F4F0E0D1F1D27
:10457000F90111830083EB2DFA2F6115710531F0DC
:10458000DB011396FC93EE93129744C0F093E7037C
:10459000E093E6033FC06D917C9111976616770614
:1045A00008F43B01BD0112960D90BC91A02DB4CF33
:1045B0006091E4037091E50368157905E9F46816E4
:1045C0007906D0F440910001509101014115510547
:1045D00041F44DB75EB76091040170910501461B2F
:1045E000570BE417F507C0F4F093E503E093E403F9
:1045F000F901918380830EC00E9422217C010097E3
:1046000059F0A801BE010E942023CE010E94BA21C8
:10461000C70104C0CE0102C080E090E0CDB7DEB794
:10462000EEE00C944923FB01DC0104C08D91019064
:10463000801921F441505040C8F7881B990B089508
:10464000FB01DC0102C001900D9241505040D8F7AF
:1046500008952F923F924F925F926F927F928F9226
:104660009F92AF92BF92CF92DF92EF92FF920F9301
:104670001F93CF93DF93CDB7DEB7CA1BDB0B0FB60B
:10468000F894DEBF0FBECDBF09942A8839884888C8
:104690005F846E847D848C849B84AA84B984C8845E
:1046A000DF80EE80FD800C811B81AA81B981CE0F55
:1046B000D11D0FB6F894DEBF0FBECDBFED0108953A
:0446C000F894FFCF9C
:1046C4000000E8038000E803D717D717564D44507D
:1046D400455F31007C005F564D4450450D0A00791A
:1046E40070720900564D4450565F317C315F564D0F
:1046F4004450560D0A0000000000FA0DCD0DA20D25
:10470400AA0DBD0DCC0D564D4450435F005F564D70
:104714004450430D0A004572726F723A204174741A
:10472400656D707420746F207365742061207265E8
:1047340061642D6F6E6C79207661726961626C655B
:10474400206F7220646174612074797065206E6FCB
:104754007420737570706F727465640D0A000000C4
:1047640000004A1AC61BCC19E519D719281A6E611C
:0C4774006E00696E66006F7666002E0015
:00000001FF
