:100000000C9464000C948C000C948C000C94D7011C
:100010000C94D7010C94D7010C948C000C948C0098
:100020000C948C000C948C000C948C000C948C0020
:100030000C948C000C948C000C948C000C948C0010
:100040000C9468030C948C000C9427060C945906AD
:100050000C948C000C948C000C948C000C948C00F0
:100060000C948C000C948C0000000008000201002D
:100070000003040700000000000000000102040863
:100080001020408001020408102001020408102002
:10009000040404040404040402020202020203032E
:1000A00003030303000000002300260029000000D2
:1000B0000000250028002B0000000000240027007D
:1000C0002A00A5008906B20011241FBECFEFD8E098
:1000D000DEBFCDBF11E0A0E0B1E0E0ECF5E102C091
:1000E00005900D92AA34B107D9F722E0AAE4B1E055
:1000F00001C01D92AD35B207E1F710E0C6ECD0E0CB
:1001000004C02297FE010E949708C23CD107C9F79C
:100110000E94CD060C94D30A0C94000026E040E81F
:1001200055E260E070E08CEB91E00E94C50566E06E
:1001300071E08CEB91E00E943E0740E855E260E000
:1001400070E080E591E00C94DA0220E042E064E0A7
:1001500080E591E00E94AA026AE371E08AE491E0FE
:100160000C94BE078AE491E00E94500780E591E07C
:100170000C94510280E591E00E948001892BE1F00E
:1001800080E591E00E948001892B51F080E591E0AB
:100190000E94F200682F8AE491E00E941808F0CFD4
:1001A0006AE471E08CEB91E00E942C076AE371E055
:1001B0008AE491E00E94D4078CEB91E00E94E20473
:1001C000892B79F06AE070E080E090E00E94D5032E
:1001D0008CEB91E00E94FB04682F80E591E00C9489
:1001E000130108952091B1013091B2012817390708
:1001F000B9F490916F0180917001981789F0E091A6
:100200006F01F0E0EF58FE4F808120916F0130E0E8
:100210002F5F3F4F2F73332720936F0190E0089596
:100220008FEF9FEF08951F93CF93DF93DC015C96D0
:100230008D919C915D97009749F481E090E0139631
:100240009C938E93129780E090E03BC05196ED9185
:10025000FC91529750962C915097322F30951FB7A2
:100260005E964C915E9741FB772770F941FD609552
:10027000F8944081772311F0422B01C0432340833F
:10028000EC012197F1F748E0508160FF02C0522B4A
:1002900001C053235083EC012197F1F7669541503B
:1002A00099F78081772311F0832301C0822B80830B
:1002B0001FBF5C968D919C915D970197F1F781E04E
:1002C00090E0DF91CF911F91089508952091B101A1
:1002D0003091B2012817390781F490916F01809114
:1002E0007001981751F0E0916F01F0E0EF58FE4F68
:1002F0008081992787FD909508958FEF9FEF08954E
:100300002091B1013091B2012817390771F4809121
:10031000700120916F0190E0805C9F4F821B9109DA
:1003200060E470E00E942C08089580E090E0089559
:10033000E091B101F091B201E817F90769F4A389DE
:10034000B4899C918589809589238C931092B20100
:100350001092B10181E0089580E00895CF93DF937A
:10036000EC018A8D9B8D892BF1F08091B1019091E8
:10037000B2018C179D07B9F0009711F00E94980107
:100380008E8D8E7F8E8F1092700110926F01D093A0
:10039000B201C093B101EB89FC8980819D89892BD1
:1003A000808381E001C080E0DF91CF9108951F92AA
:1003B0000F920FB60F9211242F933F934F935F9399
:1003C0006F937F938F939F93AF93BF93EF93FF931D
:1003D000E091B101F091B201309709F451C0868DDE
:1003E000A685B785958581FF04C08C91892329F462
:1003F00047C08C91892309F043C0A389B4899C919B
:100400008589809589238C93868997890197F1F74F
:10041000208D318DA685B785758558E040E0C901EE
:100420000197F1F7842F90E095958795482F6C916F
:10043000672309F04068515091F7868D81FD409502
:100440008091700190E001968F73992720916F0140
:10045000281749F0A0917001B0E0AF58BE4F4C93FF
:100460008093700103C0868D8160868F828D938D0D
:100470000197F1F7A389B4898C919589892B8C9385
:10048000FF91EF91BF91AF919F918F917F916F916C
:100490005F914F913F912F910F900FBE0F901F9042
:1004A00018952CE131E0FC01318320830C949801F4
:1004B0001F93CF93DF93EC01162F6E8D66956170BD
:1004C00081E06827812F0E94AC0461E0812F0E94A7
:1004D0007304812F90E0FC01E458FF4FE491E88B16
:1004E000FC01E057FF4FE491F0E0EE0FFF1FE255F3
:1004F000FF4F859194919A8B898BDF91CF911F91BA
:1005000008951F93CF93DF93EC01162F60E0812FA6
:100510000E9473048E8D81FD04C061E0812F0E94D2
:10052000AC041C87812F90E0FC01E458FF4FE4915C
:10053000ED87FC01E057FF4FE491F0E0EE0FFF1F65
:10054000EC55FF4F859194919F878E87DF91CF91D6
:100550001F910895FF920F931F93CF93DF93EC01A8
:10056000F62E522F1B821A8208EE13E020E030E0B4
:100570000C831D832E833F838CE191E099838883D4
:100580001F8A1E8A198E188E1B8E1A8E1D8E1C8E27
:100590008E8D8E7F50FB81F98E8F642FCE010E944D
:1005A00058026F2DCE01DF91CF911F910F91FF90D7
:1005B0000C948102CF93DF93EC019A01AB011B8E67
:1005C0001A8E198E188E1F8A1E8A60E079E08DE3DC
:1005D00090E00E946208C9012430310520F0B90181
:1005E0006350710902C061E070E07D8F6C8FEC8513
:1005F000E63108F068C0B9017695679564317105F8
:1006000018F06351710902C061E070E07F8B6E8B5E
:10061000069718F0C901059702C081E090E0998F14
:10062000888FC901880F991F820F931F9695879510
:10063000969587958D30910510F00C9702C081E05A
:1006400090E09B8F8A8F20916800E83050F091E015
:10065000EE3008F490E081E001C0880F9A95EAF747
:1006600001C084E0822B809368002C85283038F00C
:100670002E3040F0263148F48CE690E008C08DE63C
:1006800090E005C08BE690E002C080E090E09C8B9B
:100690008B8B283030F481E001C0880F2A95EAF76F
:1006A0000DC0822F90E02E3010F4089701C00E97F5
:1006B00091E001C0990F8A95EAF7892F8D8B8C8D77
:1006C0009D8D0197F1F7CE01DF91CF910C94AE0192
:1006D0001F920F920FB60F9211242F933F938F9377
:1006E0009F93AF93BF938091B4019091B501A09176
:1006F000B601B091B7013091B30123E0230F2D373C
:1007000020F40196A11DB11D05C026E8230F029615
:10071000A11DB11D2093B3018093B4019093B50145
:10072000A093B601B093B7018091B8019091B9013F
:10073000A091BA01B091BB010196A11DB11D80939A
:10074000B8019093B901A093BA01B093BB01BF91D6
:10075000AF919F918F913F912F910F900FBE0F906E
:100760001F9018953FB7F8948091B8019091B90106
:10077000A091BA01B091BB0126B5A89B05C02F3F3F
:1007800019F00196A11DB11D3FBF6627782F892F53
:100790009A2F620F711D811D911D42E0660F771F18
:1007A000881F991F4A95D1F708958F929F92AF9213
:1007B000BF92CF92DF92EF92FF926B017C010E9479
:1007C000B2034B015C01C114D104E104F104F1F066
:1007D0000E942B080E94B203681979098A099B09B3
:1007E000683E73408105910570F321E0C21AD1087B
:1007F000E108F10888EE880E83E0981EA11CB11C68
:10080000C114D104E104F10429F7DDCFFF90EF908A
:10081000DF90CF90BF90AF909F908F900895789485
:1008200084B5826084BD84B5816084BD85B58260F5
:1008300085BD85B5816085BDEEE6F0E08081816093
:100840008083E1E8F0E01082808182608083808193
:1008500081608083E0E8F0E0808181608083E1EB6B
:10086000F0E0808184608083E0EBF0E08081816053
:100870008083EAE7F0E08081846080838081826009
:1008800080838081816080838081806880831092F2
:10089000C1000895833081F028F4813099F08230CE
:1008A000A1F008958730A9F08830B9F08430D1F4F0
:1008B000809180008F7D03C0809180008F7780932E
:1008C0008000089584B58F7702C084B58F7D84BD84
:1008D00008958091B0008F7703C08091B0008F7D24
:1008E0008093B0000895CF93DF9390E0FC01E4582B
:1008F000FF4F2491FC01E057FF4F8491882349F179
:1009000090E0880F991FFC01E854FF4FA591B49126
:1009100082559F4FFC01C591D4919FB7611108C0CA
:10092000F8948C91209582238C93888182230AC02D
:10093000623051F4F8948C91322F309583238C934C
:100940008881822B888304C0F8948C91822B8C93AD
:100950009FBFDF91CF9108950F931F93CF93DF93A4
:100960001F92CDB7DEB7282F30E0F901E859FF4FCD
:100970008491F901E458FF4F1491F901E057FF4FBA
:1009800004910023C9F0882321F069830E944A045E
:100990006981E02FF0E0EE0FFF1FE255FF4FA591B8
:1009A000B4919FB7F8948C91611103C01095812385
:1009B00001C0812B8C939FBF0F90DF91CF911F912E
:1009C0000F910895FC01818D228D90E0805C9F4FF6
:1009D000821B91098F7399270895FC01918D828D57
:1009E000981731F0828DE80FF11D858D90E0089504
:1009F0008FEF9FEF0895FC01918D828D981761F024
:100A0000828DDF01A80FB11D5D968C91928D9F5F45
:100A10009F73928F90E008958FEF9FEF08958FE777
:100A200096E0892B49F080E090E0892B29F00E9424
:100A30007F0681110C9400000895FC01848DDF0174
:100A4000A80FB11DA35ABF4F2C91848D90E0019641
:100A50008F739927848FA689B7892C93A089B18930
:100A60008C9180648C93938D848D981306C002883A
:100A7000F389E02D80818F7D80830895CF93DF936C
:100A8000EC01888D8823C9F0EA89FB89808185FD86
:100A900005C0A889B9898C9186FD0FC00FB607FCE7
:100AA000F5CF808185FFF2CFA889B9898C9185FF28
:100AB000EDCFCE010E941D05E7CFDF91CF910895C4
:100AC000CF92DF92FF920F931F93CF93DF931F92EA
:100AD000CDB7DEB76C0181E0D60158968C9358975C
:100AE0005B969C915B975C968C915C97981307C082
:100AF0005096ED91FC915197808185FD2EC0F601B5
:100B0000038D10E00F5F1F4F0F731127F02EF601BA
:100B1000848DF81211C00FB607FCF9CFD60150969C
:100B2000ED91FC915197808185FFF1CFC6016983DA
:100B30000E941D056981EBCF838DE80FF11DE35AFB
:100B4000FF4F6083D6015B960C935B975296ED91B5
:100B5000FC915397808180620CC0D6015696ED912E
:100B6000FC91579760835096ED91FC91519780814D
:100B70008064808381E090E00F90DF91CF911F919E
:100B80000F91FF90DF90CF900895BF92CF92DF92A8
:100B9000EF92FF92CF93DF93EC016A017B01B22EBB
:100BA000E889F98982E08083411581EE5807610563
:100BB0007105A1F060E079E08DE390E0A701960176
:100BC0000E94400821503109410951095695479525
:100BD00037952795211580E1380798F0E889F9893C
:100BE000108260E874E88EE190E0A70196010E940F
:100BF00040082150310941095109569547953795CB
:100C00002795EC85FD853083EE85FF852083188E42
:100C1000EC89FD89B082EA89FB89808180618083CB
:100C2000EA89FB89808188608083EA89FB898081E9
:100C300080688083EA89FB8980818F7D8083DF9152
:100C4000CF91FF90EF90DF90CF90BF9008951F92CB
:100C50000F920FB60F9211242F938F939F93EF93C0
:100C6000FF93E091CC01F091CD018081E091D20120
:100C7000F091D30182FD12C090818091D5018F5FE8
:100C80008F732091D601821751F0E091D501F0E0E9
:100C9000E454FE4F958F8093D50101C08081FF9170
:100CA000EF919F918F912F910F900FBE0F901F90FA
:100CB00018951F920F920FB60F9211242F933F9306
:100CC0004F935F936F937F938F939F93AF93BF9354
:100CD000EF93FF938CEB91E00E941D05FF91EF9144
:100CE000BF91AF919F918F917F916F915F914F9144
:100CF0003F912F910F900FBE0F901F9018958CEB86
:100D000091E00E94E20421E0892B09F420E0822F87
:100D100008951092BF011092BE0188EE93E0A0E00A
:100D2000B0E08093C0019093C101A093C201B09341
:100D3000C3018CE291E09093BD018093BC0185ECEE
:100D400090E09093C9018093C80184EC90E0909367
:100D5000CB018093CA0180EC90E09093CD01809309
:100D6000CC0181EC90E09093CF018093CE0182EC96
:100D700090E09093D1018093D00186EC90E0909325
:100D8000D3018093D2011092D5011092D601109216
:100D9000D7011092D801089508950E940F040E946F
:100DA000CC060E948E00CFE0D5E00E94BA002097CA
:100DB000E1F30E940F05F9CFCF92DF92EF92FF92FD
:100DC0000F931F93CF93DF937C016A01EB0100E047
:100DD00010E00C151D0571F06991D701ED91FC91A2
:100DE0000190F081E02DC7010995892B19F00F5F63
:100DF0001F4FEFCFC801DF91CF911F910F91FF904F
:100E0000EF90DF90CF9008956115710581F0DB01BF
:100E10000D900020E9F7AD0141505109461B570BD9
:100E2000DC01ED91FC910280F381E02D099480E0DA
:100E300090E00895DC01ED91FC91DB0114964D9159
:100E40005C9115976D917C910280F381E02D09945E
:100E500068E371E00C9404070F931F93CF93DF9323
:100E6000EC010E941A078C01CE010E942807800F16
:100E7000911FDF91CF911F910F9108950F931F93B1
:100E8000CF93DF93EC010E9404078C01CE010E94F6
:100E90002807800F911FDF91CF911F910F91089527
:100EA000FC01808191810C943309CF93DF93EC0195
:100EB00088819981009711F00E9433091982188264
:100EC0001D821C821B821A82DF91CF9108950F939D
:100ED0001F93CF93DF93EC018B016F5F7F4F88816E
:100EE00099810E94C209009731F0998388831B83FE
:100EF0000A8381E001C080E0DF91CF911F910F91C3
:100F00000895CF93DF93EC0188819981892B29F093
:100F10008A819B818617970760F4CE010E9467073C
:100F2000882341F08C819D81892B19F4E881F98116
:100F3000108281E0DF91CF910895EF92FF920F939D
:100F40001F93CF93DF93EC017B018A01BA010E94CA
:100F50008107811104C0CE010E94550707C01D837F
:100F60000C83B701888199810E94950ACE01DF9197
:100F7000CF911F910F91FF90EF900895FC01118286
:100F8000108213821282158214826115710559F044
:100F9000FB0101900020E9F7AF0141505109461BC8
:100FA000570B0C949D070895CF93DF93EC016115C7
:100FB000710561F0FB0101900020E9F7AF0141509C
:100FC0005109461B570B0E949D0702C00E945507FE
:100FD000CE01DF91CF910895EF92FF920F931F936F
:100FE000CF93DF93EC017B010C811D8161157105AD
:100FF00011F480E016C04115510591F0040F151F42
:10100000B8010E9481078823A1F3288139818C814E
:101010009D81B701820F931F0E94950A1D830C8347
:1010200081E0DF91CF911F910F91FF90EF90089594
:10103000CF93DF9300D0CDB7DEB769831A8241E04A
:1010400050E0BE016F5F7F4F0E94EC070F900F9042
:10105000DF91CF910895089597FB072E16F4009421
:1010600007D077FD09D00E94810807FC05D03EF427
:10107000909581959F4F0895709561957F4F089544
:10108000A1E21A2EAA1BBB1BFD010DC0AA1FBB1F8C
:10109000EE1FFF1FA217B307E407F50720F0A21BFE
:1010A000B30BE40BF50B661F771F881F991F1A946B
:1010B00069F760957095809590959B01AC01BD0195
:1010C000CF010895052E97FB1EF400940E94790825
:1010D00057FD07D00E94400807FC03D04EF40C9443
:1010E000790850954095309521953F4F4F4F5F4F70
:1010F000089590958095709561957F4F8F4F9F4F84
:101100000895AA1BBB1B51E107C0AA1FBB1FA6174E
:10111000B70710F0A61BB70B881F991F5A95A9F7A0
:1011200080959095BC01CD010895EE0FFF1F0590AD
:10113000F491E02D0994CF93DF938230910510F460
:1011400082E090E0E0915B02F0915C0220E030E010
:10115000A0E0B0E0309739F140815181481759073C
:10116000B8F04817590771F482819381109729F0DC
:1011700013969C938E9312972CC090935C0280934D
:101180005B0227C02115310531F04217530718F0D3
:10119000A901DB0101C0EF019A01BD01DF0102805D
:1011A000F381E02DD7CF21153105F9F0281B390B3C
:1011B0002430310580F48A819B816115710521F00D
:1011C000FB019383828304C090935C0280935B0253
:1011D000FE01329644C0FE01E20FF31F819391930A
:1011E00022503109398328833AC020915902309125
:1011F0005A02232B41F420910201309103013093D4
:101200005A022093590220910001309101012115C9
:10121000310541F42DB73EB74091040150910501CD
:10122000241B350BE0915902F0915A02E217F307A3
:10123000A0F42E1B3F0B2817390778F0AC014E5F46
:101240005F4F2417350748F04E0F5F1F50935A0227
:10125000409359028193919302C0E0E0F0E0CF0106
:10126000DF91CF910895CF93DF93009709F487C062
:10127000FC01329713821282C0915B02D0915C0212
:10128000209781F420813181280F391F80915902E4
:1012900090915A028217930779F5F0935A02E093DE
:1012A00059026DC0DE0120E030E0AE17BF0750F4F8
:1012B00012964D915C9113979D014115510509F1CD
:1012C000DA01F3CFB383A28340815181840F951F4C
:1012D0008A179B0771F48D919C911197840F951F2C
:1012E00002969183808312968D919C91139793839C
:1012F00082832115310529F4F0935C02E0935B02AF
:101300003EC0D9011396FC93EE9312974D915D91D7
:10131000A40FB51FEA17FB0779F480819181840F30
:10132000951F0296D90111969C938E938281938189
:1013300013969C938E931297E0E0F0E08A819B8154
:10134000009719F0FE01EC01F9CFCE010296288139
:101350003981820F931F2091590230915A02281728
:10136000390769F4309729F410925C0210925B02FD
:1013700002C013821282D0935A02C0935902DF91A5
:10138000CF910895A0E0B0E0E8ECF9E00C94A00A59
:10139000EC01CB01209719F40E949B08B8C0FE0114
:1013A000E60FF71F9E0122503109E217F30708F4F8
:1013B000ACC0D9010D911C91119706171707B8F011
:1013C0000530110508F49FC0A80144505109461783
:1013D000570708F498C002501109061B170B019318
:1013E00011936D937C93CF010E9433098CC05B01F4
:1013F000A01AB10A4E01800E911EA0915B02B0911D
:101400005C02612C712C60E070E0109709F449C017
:10141000A815B905C9F5ED90FC901197670142E058
:10142000C40ED11CCA14DB0478F147018A189B084A
:10143000640142E0C40ED11C1296BC901297139620
:10144000AC91B5E0CB16D10440F0B282A383918277
:101450008082D9018D939C9309C00E5F1F4F0E0DA2
:101460001F1DF90111830083EB2DFA2F6115710502
:1014700031F0DB011396FC93EE93129744C0F09386
:101480005C02E0935B023FC06D917C911197661600
:10149000770608F43B01BD0112960D90BC91A02D7A
:1014A000B4CF6091590270915A0268157905E9F438
:1014B00068167906D0F44091000150910101411560
:1014C000510541F44DB75EB760910401709105017B
:1014D000461B570BE417F507C0F4F0935A02E0934C
:1014E0005902F901918380830EC00E949B087C0100
:1014F000009759F0A801BE010E948C0ACE010E94FB
:101500003309C70104C0CE0102C080E090E0CDB72E
:10151000DEB7EEE00C94BC0AFB01DC0102C00190D6
:101520000D9241505040D8F70895FB01DC01019025
:101530000D920020E1F708952F923F924F925F9213
:101540006F927F928F929F92AF92BF92CF92DF92D3
:10155000EF92FF920F931F93CF93DF93CDB7DEB738
:10156000CA1BDB0B0FB6F894DEBF0FBECDBF0994CC
:101570002A88398848885F846E847D848C849B8423
:10158000AA84B984C884DF80EE80FD800C811B8131
:10159000AA81B981CE0FD11D0FB6F894DEBF0FBE60
:1015A000CDBFED01089510E0C6ECD0E004C0FE010F
:1015B0000E9497082296C83CD107C9F7F894FFCF3C
:1015C00000005D0280005479706520415420636FF3
:1015D0006D6D616E64732100000000001301DC0674
:1015E0008001F20066016501000000006005DC0674
:1015F000E204FB04ED043E050D0A006E616E006915
:0A1600006E66006F7666002E000093
:00000001FF
